:100000000C94031B0C94362D0C940B2D0C94E02CAB
:100010000C94B52C0C948A2C0C945F2C0C94342CDE
:100020000C94092C0C94341B0C94341B0C94341B2E
:100030000C94341B0C94341B0C94341B0C94341B04
:100040000C94341B0C94341B0C94341B0C94341BF4
:100050000C94612D0C94341B0C94341B0C94BF2B0A
:100060000C94341B0C94892B0C945F2B0C94341B34
:100070000C94341B0C94341B0C94341B0C94341BC4
:100080000C94341B0C94341B0C94341B0C94341BB4
:100090000C94341B0C94341B0C94341B0C94341BA4
:1000A0000C94341B0C94341B0C94341B0C94341B94
:1000B0000C94341B0C94341B0C94341B0C94341B84
:1000C0000C94341B0C94341B0C94341B0C94341B74
:1000D0000C94341B0C94341B0C94292B0C94FF2A85
:1000E0000C94341B0C94101D0C945C320C94241D45
:1000F0000C9414530C94401D0C943B1D0C94051D42
:100100000C94D81B0C9402350C94E61B0C94C92853
:100110000C940D1D0C94881B0C94011D0C94B82894
:100120000C94971E0C94281C0C94281D0C942F32B0
:100130000C94751E0C94D91F0C94611E0C947C5564
:100140000C94691E0C943C1D0C941A1D0C942E1DCD
:100150000C94B51B0C94C41B0C94091D0C94B01E7C
:100160000C9496280C94161D0C948F1E0C94361D1E
:100170000C94201D0C94FB1C0C94821E0C948A552C
:100180000C94901C0C94BD1E0C94A31E0C948C2DEE
:100190000C94F5340C94321D0C94A7284E414E4912
:1001A0004E495459494E46CDCCCC3D0AD7233C1735
:1001B000B7D13877CC2B329595E6241FB14F0A0082
:1001C0000020410000C84200401C4620BCBE4CCA72
:1001D0001B0E5AAEC59D7400002100240027002A82
:1001E000002D003000330001010000040107010A66
:1001F0000100002200250028002B002E00310034D1
:100200000002010000050108010B0100002000238D
:1002100000260029002C002F0032000001000003FE
:10022000010601090105050505070508080808027A
:100230000202020A0A08080404040401010101017F
:100240000101010303030303030303040707070C6E
:100250000C0C0C0C0C0C0C02020202060606060624
:100260000606060B0B0B0B0B0B0B0B0102102020D1
:1002700008081020401020408002010201080402FA
:100280000101020408102040808040201008040270
:1002900001800402018040201008040201080402C9
:1002A00001010204081020408001020408102040CF
:1002B0008000000A0B02090C0D0E08070304010060
:1002C000000000000000000000000000000000002E
:1002D00000000000000000000000000000121110EB
:1002E000000000000000000000000000000000000E
:1002F00000000000000000536F667477617265763D
:10030000657273696F6E20617573676562656E00F3
:1003100020202020000056455253494F4E2064654E
:100320007220536F667477617265002020003E3A38
:100330000056455253494F4E003C002020202000DB
:100340003A00560052657472696767657220656984
:100350006E657320547269676765722D4B616E61BB
:100360006C73207365747A656E0020202020005223
:1003700065747269676765722D466C616720283005
:10038000203D2067657370657272742C2031203DAA
:1003900020667265696765676562656E2C204265D7
:1003A00072656963683A20302D3129003E202000B3
:1003B000696E74003C003A20200032005061726186
:1003C0006D6574657220230020202020004B616E33
:1003D000616C2D496E646578202830203D20312ED7
:1003E000536368616C746B616E616C2C2042657242
:1003F000656963683A20302D3329003E202000696A
:100400006E74003C003A2020003100506172616D32
:10041000657465722023002020202000005365743D
:100420002054526947657220526574726967676526
:1004300072002020003E00696E740020203C003EC7
:1004400000696E740020203C003E3A00535452472D
:1004500052003C0020202020005365747A656E20F5
:10046000646572204265747269656273617274209A
:100470006465732054726967676572730020202079
:100480002000547269676765726D6F647573202808
:100490004C4F572C20484947482C2046414C4C494A
:1004A0004E472C20524953494E472C204C45564527
:1004B0004C5F444F574E2C204C4556454C5F555091
:1004C0002C204952515F444F574E2C204952515FC6
:1004D000555029003E202000737472696E67003CFD
:1004E000003A2020003200506172616D65746572BF
:1004F00020230020202020004B616E616C2D496E6E
:10050000646578202830203D20312E536368616C6B
:10051000746B616E616C2C20426572656963683A28
:1005200020302D3329003E202000696E74003C00ED
:100530003A2020003100506172616D65746572204F
:100540002300202020200000536574205452694766
:10055000676572204D6F6465002020003E00737453
:1005600072696E670020203C003E00696E740020B6
:10057000203C003E3A00535452474D003C0020209E
:100580002020005365747A656E2064657220536381
:1005900068616C7473636877656C6C65207A756DDF
:1005A00020416B746976696572656E20646573209D
:1005B000547269676765727320696D204D6F647549
:1005C00073204952515F444F574E206F646572202B
:1005D0004952515F55500020202020005472696715
:1005E0006765726C6576656C202842657265696323
:1005F000683A20302E30302D352E303029003E2004
:100600002000666C6F6174003C003A2020003200CC
:10061000506172616D657465722023002020202076
:10062000004B616E616C2D496E6465782028302026
:100630003D20312E536368616C746B616E616C2C6C
:1006400020426572656963683A20302D3329003E87
:10065000202000696E74003C003A202000310050D8
:100660006172616D65746572202300202020200076
:1006700000536574205452726947676572204C6557
:1006800076656C002020003E00666C6F617400206F
:10069000203C003E00696E740020203C003E3A0081
:1006A000535452474C003C002020202000467265E5
:1006B00069676162652D5374617475732065696E35
:1006C000657320547269676765722D4B616E616C4A
:1006D00073207365747A656E0020202020004672B6
:1006E0006569676162652D466C6167202830203D31
:1006F0002067657370657272742C2031203D20660E
:100700007265696765676562656E2C204265726512
:100710006963683A20302D3129003E202000696E3F
:1007200074003C003A2020003200506172616D6517
:1007300074657220230020202020004B616E616CC4
:100740002D496E646578202830203D20312E53637A
:1007500068616C746B616E616C2C204265726569B6
:1007600063683A20302D3329003E202000696E74E2
:10077000003C003A2020003100506172616D6574C8
:10078000657220230020202020000053657420542F
:10079000526947657220456E61626C6500202000D9
:1007A0003E00696E740020203C003E00696E7400BB
:1007B00020203C003E3A005354524745003C002064
:1007C00020202000547269676765722D466C61674E
:1007D000207365747A656E002020202000576572B2
:1007E000742028426572656963683A20302C31298B
:1007F000003E202000696E74003C003A2020003248
:1008000000506172616D65746572202300202020A4
:100810002000547269676765722D4B616E616C20B0
:100820002830203D20312E547269676765722D4B48
:10083000616E616C2C20426572656963683A203094
:100840002D3329003E202000696E74003C003A20C0
:1008500020003100506172616D6574657220230063
:1008600020202020004B616E616C2D496E646578FC
:10087000202830203D20312E536368616C746B61F9
:100880006E616C2C20426572656963683A20302D78
:100890003729003E202000696E74003C003A202079
:1008A000003100506172616D657465722023002013
:1008B000202020000053657420535769746368201A
:1008C0005472696767657220466C6167002020007A
:1008D0003E00696E740020203C003E00696E74008A
:1008E00020203C003E3A005353575446003C002021
:1008F0002020200054696D696E672065696E6573FC
:1009000020536368616C746B616E616C73206675F3
:1009100065722064656E20546F67676C652D2F4982
:100920006D70756C7362657472696562207365744D
:100930007A656E0020202020005665727A6F656708
:100940006572756E67737A65697420286D73290006
:100950003E202000696E74003C003A2020003400E4
:10096000506172616D657465722023002020202023
:1009700000417573736368616C747A6569742028CB
:100980006D7329003E202000696E74003C003A20FF
:1009900020003300506172616D6574657220230020
:1009A000202020200045696E736368616C747A654D
:1009B000697420286D7329003E202000696E740040
:1009C0003C003A2020003200506172616D65746510
:1009D0007220230020202020004B616E616C2D4985
:1009E0006E646578202830203D20312E5363686185
:1009F0006C746B616E616C2C204265726569636812
:100A00003A20302D3729003E202000696E74003CCA
:100A1000003A2020003100506172616D657465728A
:100A200020230020202020000053657420535769A4
:100A30007463682054696D696E67002020003E0071
:100A4000696E740020203C003E00696E7400202016
:100A50003C003E00696E740020203C003E00696E40
:100A6000740020203C003E3A0053535754003C0091
:100A700020202020004E65676174696F6E732D46DB
:100A80006C6167207365747A656E002020202000F9
:100A9000576572742028426572656963683A203030
:100AA0002C3129003E202000696E74003C003A2061
:100AB00020003200506172616D6574657220230000
:100AC00020202020004B616E616C2D496E6465789A
:100AD000202830203D20312E536368616C746B6197
:100AE0006E616C2C20426572656963683A20302D16
:100AF0003729003E202000696E74003C003A202017
:100B0000003100506172616D6574657220230020B0
:100B100020202000005365742053576974636820B7
:100B20004E65676174696F6E20466C6167002020B6
:100B3000003E00696E740020203C003E00696E7427
:100B40000020203C003E3A005353574E46003C00E4
:100B500020202020005365747A656E206465722021
:100B60004265747269656273617274206465732092
:100B7000536368616C746B616E616C73002020203C
:100B8000200042657472696562736D6F64757320CD
:100B9000284F46462C204F4E2C20544F47474C455B
:100BA0002C20494D50554C534529003E20200073C0
:100BB0007472696E67003C003A2020003200506178
:100BC00072616D6574657220230020202020004B27
:100BD000616E616C2D496E646578202830203D205F
:100BE000312E536368616C746B616E616C2C2042B2
:100BF0006572656963683A20302D3329003E2020F4
:100C000000696E74003C003A20200031005061728F
:100C1000616D657465722023002020202000005340
:100C2000657420535769746368204D6F64650020B4
:100C300020003E00737472696E670020203C003E05
:100C400000696E740020203C003E3A005353574D1B
:100C5000003C002020202000496D6D6564696174AE
:100C6000652D466C6167207365747A656E0020207F
:100C70002020005765727420284265726569636898
:100C80003A20302C3129003E202000696E74003C4F
:100C9000003A2020003200506172616D6574657207
:100CA00020230020202020004B616E616C2D496EB6
:100CB000646578202830203D20312E536368616CB4
:100CC000746B616E616C2C20426572656963683A71
:100CD00020302D3729003E202000696E74003C0032
:100CE0003A2020003100506172616D657465722098
:100CF000230020202020000053657420535769747E
:100D0000636820496D6D65646961746520466C6136
:100D100067002020003E00696E740020203C003EE9
:100D200000696E740020203C003E3A00535357493E
:100D300046003C0020202020004672656967616201
:100D4000652D5374617475732065696E65732053E6
:100D50006368616C746B616E616C73207365747A27
:100D6000656E00202020200046726569676162651B
:100D70002D466C6167202830203D206765737065C3
:100D80007272742C2031203D206672656967656738
:100D90006562656E2C20426572656963683A203031
:100DA0002D3129003E202000696E74003C003A205D
:100DB00020003200506172616D65746572202300FD
:100DC00020202020004B616E616C2D496E64657897
:100DD000202830203D20312E536368616C746B6194
:100DE0006E616C2C20426572656963683A20302D13
:100DF0003729003E202000696E74003C003A202014
:100E0000003100506172616D6574657220230020AD
:100E100020202000005365742053576974636820B4
:100E2000456E61626C65002020003E00696E7400B2
:100E300020203C003E00696E740020203C003E3AB9
:100E40000053535745003C0020202020004B616E8A
:100E5000616C2D4B6F6E66696775726174696F6E38
:100E600020617573676562656E0020202020005741
:100E7000657274202830203D206E69636874206795
:100E8000657472696767657274652042657472691A
:100E90006562736172742C2031203D206765747225
:100EA000696767657274652042657472696562730B
:100EB0006172742C20426572656963683A20302C37
:100EC0003129003E202000626F6F6C003C003A2008
:100ED0002000313200506172616D657465722023AB
:100EE000002020202000547269676765722D4B61D5
:100EF0006E616C202830203D20312E547269676766
:100F000065722D4B616E616C2C2042657265696360
:100F1000683A20302D3329003E202000696E74008D
:100F20003C003A202000313100506172616D6574DF
:100F3000657220230020202020005765727420282D
:100F400030203D206E6963687420696E7665727426
:100F50006965727465204265747269656273617255
:100F6000742C2031203D20696E766572746965723B
:100F700074652042657472696562736172742C20B5
:100F8000426572656963683A20302C3129003E2041
:100F90002000626F6F6C003C003A2020003130006E
:100FA000506172616D6574657220230020202020DD
:100FB0000057657274202830203D204175736761A9
:100FC0006265206D697420646572206EEFBFBD6339
:100FD000687374656E204F4E2D466C616E6B652C88
:100FE0002031203D20756E6D697474656C6261728C
:100FF00020417573676162652C2042657265696383
:10100000683A20302C3129003E202000626F6F6C3E
:10101000003C003A2020003900506172616D657417
:10102000657220230020202020005765727420283C
:1010300030203D2073796E6368726F6E6520426563
:101040007472696562736172742C2031203D206175
:1010500073796E6368726F6E65204265747269653C
:1010600062736172742C20426572656963683A200C
:10107000302C3129003E202000626F6F6C003C0054
:101080003A2020003800506172616D6574657220ED
:1010900023002020202000496D70756C7365003E90
:1010A000202000696E74003C003A20200037005078
:1010B0006172616D6574657220230020202020001C
:1010C0005665727A6F65676572756E67737A656962
:1010D0007420286D7329003E202000696E74003C46
:1010E000003A2020003600506172616D65746572AF
:1010F0002023002020202000417573736368616CF9
:10110000747A65697420286D7329003E2020006977
:101110006E74003C003A2020003500506172616D11
:1011200065746572202300202020200045696E73BD
:101130006368616C747A65697420286D7329003E58
:10114000202000696E74003C003A202000340050DA
:101150006172616D6574657220230020202020007B
:1011600042657472696562736D6F64757320284F90
:1011700046462C204F4E2C20544F47474C452C20A0
:10118000494D50554C534529003E20200073747240
:10119000696E67003C003A202000330050617261A4
:1011A0006D6574657220230020202020004B616E45
:1011B000616C2D4672656967616265202830203D4B
:1011C0002067657370657272742C2031203D206633
:1011D0007265696765676562656E2C204265726538
:1011E0006963683A20302C3129003E202000626F6C
:1011F0006F6C003C003A2020003200506172616D3B
:101200006574657220230020202020004B616E61F0
:101210006C2D496E646578202830203D20312E4E9B
:1012200065747A7465696C2D536368616C746B6165
:101230006E616C2C20426572656963683A20302DBE
:101240003729003E202000696E74003C003A2020BF
:10125000003100506172616D657465722023002059
:10126000202020000053657420506F7765725375FD
:1012700050706C7920434F4E4649477572617469CE
:101280006F6E002020003E00626F6F6C0020203CDB
:10129000003E00696E740020203C003E00626F6FCB
:1012A0006C0020203C003E00626F6F6C0020203CF0
:1012B000003E00626F6F6C0020203C003E00696EB3
:1012C000740020203C003E00696E740020203C0029
:1012D0003E00696E740020203C003E00696E740080
:1012E00020203C003E00696E740020203C003E003F
:1012F000626F6F6C0020203C003E00696E7400201D
:10130000203C003E3A00535357434F4E4649470056
:101310003C002020202000416E7A61686C206465CA
:101320007220496D70756C736520696D20496D7010
:10133000756C73626574726965622065696E657348
:1013400020536368616C746B616E616C73207365AC
:10135000747A656E002020202000496D70756C73D2
:1013600065003E202000696E74003C003A20200099
:101370003200506172616D65746572202300202017
:101380002020004B616E616C2D496E6465782028C9
:1013900030203D20312E536368616C746B616E6147
:1013A0006C2C20426572656963683A20302D3729BC
:1013B000003E202000696E74003C003A202000317D
:1013C00000506172616D65746572202300202020D9
:1013D0002000005365742053576974636820436F7D
:1013E000756E746572002020003E00696E740020E6
:1013F000203C003E00696E740020203C003E3A0014
:1014000053535743003C0020202020004173796E45
:101410006368726F6E2D466C6167207365747A65C0
:101420006E002020202000576572742028426572CB
:10143000656963683A20302C3129003E202000691C
:101440006E74003C003A2020003200506172616DE1
:101450006574657220230020202020004B616E619E
:101460006C2D496E646578202830203D20312E5344
:101470006368616C746B616E616C2C20426572658F
:101480006963683A20302D3729003E202000696EBC
:1014900074003C003A2020003100506172616D659B
:1014A00074657220230020202020000053657420E2
:1014B000535769746368204173796E6368726F6E05
:1014C0006F757320466C6167002020003E00696ED6
:1014D000740020203C003E00696E740020203C0017
:1014E0003E3A005353574146003C00202020200044
:1014F000547269676765722D466C61672073657405
:101500007A656E00202020200057657274202842E2
:101510006572656963683A20302C3129003E2020CD
:1015200000696E74003C003A202000320050617265
:10153000616D6574657220230020202020005472A4
:1015400069676765722D4B616E616C202830203DA4
:1015500020312E547269676765722D4B616E616C24
:101560002C20426572656963683A20302D3329006A
:101570003E202000696E74003C003A2020003100BB
:10158000506172616D6574657220230020202020F7
:10159000004B616E616C2D496E64657820283020A7
:1015A0003D20312E4E65747A7465696C2D536368E5
:1015B000616C746B616E616C2C204265726569634D
:1015C000683A20302D3729003E202000696E7400D3
:1015D0003C003A2020003100506172616D657465F5
:1015E0007220230020202020000053657420506FBB
:1015F000776572537550706C7920547269676765AE
:101600007220466C6167002020003E00696E740005
:1016100020203C003E00696E740020203C003E3AD1
:1016200000535053505446003C00202020200054CA
:10163000696D696E672065696E6573204E65747AA1
:101640007465696C2D536368616C746B616E616C59
:101650007320667565722064656E20546F67676CD1
:10166000652D2F496D70756C736265747269656262
:10167000207365747A656E00202020200056657204
:101680007A6F65676572756E67737A65697420280D
:101690006D7329003E202000696E74003C003A20E2
:1016A00020003400506172616D6574657220230002
:1016B0002020202000417573736368616C747A6523
:1016C000697420286D7329003E202000696E740023
:1016D0003C003A2020003300506172616D657465F2
:1016E00072202300202020200045696E736368610A
:1016F0006C747A65697420286D7329003E2020007F
:10170000696E74003C003A20200032005061726122
:101710006D6574657220230020202020004B616ECF
:10172000616C2D496E646578202830203D20312E73
:101730004E65747A7465696C2D536368616C746B63
:10174000616E616C2C20426572656963683A203075
:101750002D3729003E202000696E74003C003A209D
:1017600020003100506172616D6574657220230044
:1017700020202020000053657420506F776572533D
:101780007550706C792054696D696E670020200077
:101790003E00696E740020203C003E00696E7400BB
:1017A00020203C003E00696E740020203C003E007A
:1017B000696E740020203C003E3A00535053505450
:1017C000003C0020202020004E65676174696F6E28
:1017D000732D466C6167207365747A656E002020F6
:1017E000202000576572742028426572656963681D
:1017F0003A20302C3129003E202000696E74003CD4
:10180000003A2020003200506172616D657465728B
:1018100020230020202020004B616E616C2D496E3A
:10182000646578202830203D20312E4E65747A740E
:1018300065696C2D536368616C746B616E616C2CAF
:1018400020426572656963683A20302D3729003E71
:10185000202000696E74003C003A202000310050C6
:101860006172616D65746572202300202020200064
:101870000053657420506F776572537550706C79A2
:10188000204E65676174696F6E20466C6167002049
:1018900020003E00696E740020203C003E00696E0E
:1018A000740020203C003E3A00535053504E4600F6
:1018B0003C0020202020005365747A656E2064650A
:1018C0007220426574726965627361727420646526
:1018D00073204E65747A7465696C2D536368616C0E
:1018E000746B616E616C730020202020004265746F
:1018F00072696562736D6F64757320284F46462C5C
:10190000204F4E2C20544F47474C452C20494D50DA
:10191000554C534529003E202000737472696E6750
:10192000003C003A2020003200506172616D657405
:10193000657220230020202020004B616E616C2DF9
:10194000496E646578202830203D20312E4E657424
:101950007A7465696C2D536368616C746B616E6138
:101960006C2C20426572656963683A20302D3329FA
:10197000003E202000696E74003C003A20200031B7
:1019800000506172616D6574657220230020202013
:1019900020000053657420506F7765725375507046
:1019A0006C79204D6F6465002020003E00737472D6
:1019B000696E670020203C003E00696E74002020A4
:1019C0003C003E3A00535053504D003C0020202034
:1019D0002000496D6D6564696174652D466C6167B1
:1019E000207365747A656E00202020200057657290
:1019F000742028426572656963683A20302C312969
:101A0000003E202000696E74003C003A2020003225
:101A100000506172616D6574657220230020202082
:101A200020004B616E616C2D496E64657820283012
:101A3000203D20312E4E65747A7465696C2D536398
:101A400068616C746B616E616C2C204265726569B3
:101A500063683A20302D3729003E202000696E74DB
:101A6000003C003A2020003100506172616D6574C5
:101A70006572202300202020200000536574205030
:101A80006F776572537550706C7920496D6D656420
:101A90006961746520466C6167002020003E006922
:101AA0006E740020203C003E00696E740020203CD3
:101AB000003E3A00535053504946003C002020203D
:101AC000200046726569676162652D5374617475A3
:101AD000732065696E6573204E65747A7465696CF0
:101AE0002D536368616C746B616E616C73207365F8
:101AF000747A656E00202020200046726569676157
:101B000062652D466C6167202830203D2067657333
:101B100070657272742C2031203D20667265696791
:101B200065676562656E2C20426572656963683A17
:101B300020302D3129003E202000696E74003C00C9
:101B40003A2020003200506172616D657465722028
:101B5000230020202020004B616E616C2D496E64B3
:101B60006578202830203D20312E4E65747A7465CA
:101B7000696C2D536368616C746B616E616C2C20B1
:101B8000426572656963683A20302D3729003E202E
:101B90002000696E74003C003A2020003100506142
:101BA00072616D6574657220230020202020000082
:101BB00053657420506F776572537550706C79203F
:101BC000456E61626C65002020003E00696E740005
:101BD00020203C003E00696E740020203C003E3A0C
:101BE000005350535045003C0020202020004B6102
:101BF0006E616C2D4B6F6E66696775726174696F8B
:101C00006E20617573676562656E0020202020007C
:101C100057657274202830203D206E6963687420F7
:101C2000676574726967676572746520426574726E
:101C3000696562736172742C2031203D2067657480
:101C4000726967676572746520426574726965625E
:101C5000736172742C20426572656963683A203042
:101C60002C3129003E202000626F6F6C003C003A4E
:101C7000202000313200506172616D657465722000
:101C800023002020202000547269676765722D4B65
:101C9000616E616C202830203D20312E54726967BE
:101CA0006765722D4B616E616C2C204265726569AF
:101CB00063683A20302D3329003E202000696E747D
:101CC000003C003A202000313100506172616D65A6
:101CD0007465722023002020202000576572742034
:101CE0002830203D206E6963687420696E766572C5
:101CF00074696572746520426574726965627361A6
:101D000072742C2031203D20696E7665727469658D
:101D10007274652042657472696562736172742CB5
:101D200020426572656963683A20302C3129003E93
:101D3000202000626F6F6C003C003A2020003130A0
:101D400000506172616D657465722023002020204F
:101D5000200057657274202830203D20417573673C
:101D6000616265206D697420646572206EEFBFBD8D
:101D700063687374656E204F4E2D466C616E6B65A3
:101D80002C2031203D20756E6D697474656C626124
:101D90007220417573676162652C204265726569C6
:101DA00063683A20302C3129003E202000626F6F9A
:101DB0006C003C003A2020003900506172616D6572
:101DC0007465722023002020202000576572742043
:101DD0002830203D2073796E6368726F6E652042F3
:101DE000657472696562736172742C2031203D20C4
:101DF0006173796E6368726F6E6520426574726993
:101E00006562736172742C20426572656963683A19
:101E100020302C3129003E202000626F6F6C003C86
:101E2000003A2020003800506172616D657465725F
:101E30002023002020202000496D70756C73650000
:101E40003E202000696E74003C003A2020003700DC
:101E5000506172616D65746572202300202020201E
:101E6000005665727A6F65676572756E67737A651D
:101E7000697420286D7329003E202000696E74006B
:101E80003C003A2020003600506172616D65746537
:101E90007220230020202020004175737363686145
:101EA0006C747A65697420286D7329003E202000C7
:101EB000696E74003C003A20200035005061726168
:101EC0006D65746572202300202020200045696E16
:101ED000736368616C747A65697420286D73290076
:101EE0003E202000696E74003C003A20200034003F
:101EF000506172616D65746572202300202020207E
:101F00000042657472696562736D6F647573202831
:101F10004F46462C204F4E2C20544F47474C452CC3
:101F200020494D50554C534529003E2020007374E4
:101F300072696E67003C003A2020003300506172E5
:101F4000616D6574657220230020202020004B61A4
:101F50006E616C2D4672656967616265202830206C
:101F60003D2067657370657272742C2031203D20AE
:101F7000667265696765676562656E2C2042657289
:101F8000656963683A20302C3129003E20200062C8
:101F90006F6F6C003C003A2020003200506172618B
:101FA0006D6574657220230020202020004B616E37
:101FB000616C2D496E646578202830203D20312EDB
:101FC0004E65747A7465696C2D536368616C746BCB
:101FD000616E616C2C20426572656963683A2030DD
:101FE0002D3729003E202000696E74003C003A2005
:101FF00020003100506172616D65746572202300AC
:1020000020202020000053657420506F77657253A4
:102010007550706C7920434F4E4649477572617414
:10202000696F6E002020003E00626F6F6C00202000
:102030003C003E00696E740020203C003E00626F50
:102040006F6C0020203C003E00626F6F6C0020200F
:102050003C003E00626F6F6C0020203C003E006937
:102060006E740020203C003E00696E740020203C0D
:10207000003E00696E740020203C003E00696E74D2
:102080000020203C003E00696E740020203C003E91
:1020900000626F6F6C0020203C003E00696E74008F
:1020A00020203C003E3A0053505350434F4E464987
:1020B00047003C002020202000416E7A61686C209F
:1020C00064657220496D70756C736520696D204977
:1020D0006D70756C73626574726965622065696E96
:1020E0006573204E65747A7465696C2D53636861FD
:1020F0006C746B616E616C73207365747A656E00CD
:102100002020202000496D70756C7365003E2020F2
:1021100000696E74003C003A202000320050617269
:10212000616D6574657220230020202020004B61C2
:102130006E616C2D496E646578202830203D203119
:102140002E4E65747A7465696C2D536368616C7486
:102150006B616E616C2C20426572656963683A2020
:10216000302D3729003E202000696E74003C003A73
:102170002020003100506172616D6574657220230A
:102180000020202020000053657420506F77657276
:10219000537550706C7920436F756E7465720020B2
:1021A00020003E00696E740020203C003E00696EF5
:1021B000740020203C003E3A005350535043003CF2
:1021C0000020202020004173796E6368726F6E2DAD
:1021D000466C6167207365747A656E00202020204C
:1021E00000576572742028426572656963683A20F9
:1021F000302C3129003E202000696E74003C003AEA
:102200002020003200506172616D65746572202378
:102210000020202020004B616E616C2D496E6465AA
:1022200078202830203D20312E4E65747A746569FF
:102230006C2D536368616C746B616E616C2C204211
:102240006572656963683A20302D3729003E202089
:1022500000696E74003C003A202000310050617229
:10226000616D6574657220230020202020000053DA
:10227000657420506F776572537550706C7920418A
:1022800073796E6368726F6E6F757320466C6167E9
:10229000002020003E00696E740020203C003E00BB
:1022A000696E740020203C003E3A00535053504168
:1022B00046003C0020202020004B6F6E6669677549
:1022C000726174696F6E73706172616D657465724D
:1022D000207365747A656E00202020200057657297
:1022E00074003E202000696E74003C003A202000FB
:1022F0003200506172616D65746572202300202088
:10230000202000416E6761626520EFBFBD6265728B
:102310002064656E207A75207365747A656E6465D5
:102320006E204B6F6E66696775726174696F6E734C
:10233000706172616D657465722028454E41424C32
:102340004529003E202000696E74003C003A2020A0
:10235000003100506172616D657465722023002048
:10236000202020000053657420436F6E46694700AB
:102370002020003E00696E740020203C003E006971
:102380006E740020203C003E3A0053434647003C18
:102390000020202020003A005300506172616D65DA
:1023A000746572206465722065696E7A656C6E650D
:1023B0006E204B616E61656C6520696E20546162B0
:1023C000656C6C656E666F726D20617573676562B2
:1023D000656E00202020200000494E464F206F757A
:1023E00074707574002020003E3A00494E464F003C
:1023F0003C0020202020003A00490048696C6665B6
:1024000020617573676562656E00202020200000E2
:1024100048454C502073797374656D002020003E50
:102420003A0048454C50003C0020202020003A0053
:1024300048005265747269676765722D53746174E0
:1024400075732065696E657320547269676765727C
:102450002D4B616E616C7320617573676562656E8B
:102460000020202020004B616E616C2D496E646558
:1024700078202830203D20312E536368616C746BC6
:10248000616E616C2C20426572656963683A203028
:102490002D3329003E202000696E74003C003A2054
:1024A00020003100506172616D65746572202300F7
:1024B000202020200000476574205452694765722F
:1024C00020526574726967676572002020003E00C3
:1024D000696E740020203C003E3A00475452475237
:1024E000003C002020202000547269676765722D2F
:1024F0004D6F6475732065696E65732054726967EA
:102500006765722D4B616E616C73206175736765D1
:1025100062656E0020202020004B616E616C2D49A9
:102520006E646578202830203D20312E5363686129
:102530006C746B616E616C2C2042657265696368B6
:102540003A20302D3329003E202000696E74003C73
:10255000003A2020003100506172616D657465722F
:102560002023002020202000004765742054526959
:10257000476572204D6F6465002020003E00696E43
:10258000740020203C003E3A00475452474D003C26
:10259000002020202000547269676765722D536304
:1025A0006877656C6C652065696E65732054726927
:1025B000676765722D4B616E616C7320617573671F
:1025C0006562656E0020202020004B616E616C2DDD
:1025D000496E646578202830203D20312E53636891
:1025E000616C746B616E616C2C204265726569630D
:1025F000683A20302D3329003E202000696E740097
:102600003C003A2020003100506172616D657465B4
:10261000722023002020202000004765742054529F
:1026200069476572204C6576656C002020003E008D
:10263000696E740020203C003E3A00475452474CDB
:10264000003C0020202020004672656967616265B9
:102650002D5374617475732065696E6573205472AF
:1026600069676765722D4B616E616C73206175736C
:10267000676562656E0020202020004B616E616CF2
:102680002D496E646578202830203D20312E53631B
:1026900068616C746B616E616C2C20426572656957
:1026A00063683A20302D3329003E202000696E7483
:1026B000003C003A2020003100506172616D657469
:1026C00065722023002020202000004765742054DC
:1026D000526947657220456E61626C65002020007A
:1026E0003E00696E740020203C003E3A0047545280
:1026F0004745003C00202020200054726967676530
:10270000722D466C616720617573676562656E0046
:1027100020202020004B616E616C2D496E6465782D
:10272000202830203D20312E536368616C746B612A
:102730006E616C2C20426572656963683A20302DA9
:102740003729003E202000696E74003C003A2020AA
:10275000003100506172616D657465722023002044
:102760002020200000476574205357697463682057
:102770005472696767657220466C616700202000AB
:102780003E00696E740020203C003E3A00475357DB
:102790005446003C00202020200054696D696E677B
:1027A0002065696E657320536368616C746B616E3C
:1027B000616C7320667565722064656E20546F6766
:1027C000676C652D2F496D70756C736265747269E5
:1027D000656220617573676562656E002020202048
:1027E000004B616E616C2D496E6465782028302045
:1027F0003D20312E536368616C746B616E616C2C8B
:1028000020426572656963683A20302D3729003EA1
:10281000202000696E74003C003A202000310050F6
:102820006172616D65746572202300202020200094
:1028300000476574205357697463682054696D6953
:102840006E67002020003E00696E740020203C006E
:102850003E3A0047535754003C0020202020004EB1
:1028600065676174696F6E732D466C616720617571
:1028700073676562656E0020202020004B616E61E9
:102880006C2D496E646578202830203D20312E5310
:102890006368616C746B616E616C2C20426572655B
:1028A0006963683A20302D3729003E202000696E88
:1028B00074003C003A2020003100506172616D6567
:1028C00074657220230020202020000047657420BA
:1028D000535769746368204E65676174696F6E2031
:1028E000466C6167002020003E00696E7400202065
:1028F0003C003E3A004753574E46003C0020202003
:102900002000426574726965627361727420646547
:102910007320536368616C746B616E616C732061CA
:102920007573676562656E0020202020004B616E24
:10293000616C2D496E646578202830203D20312E51
:10294000536368616C746B616E616C2C20426572BC
:10295000656963683A20302D3329003E20200069E4
:102960006E74003C003A2020003100506172616DAD
:1029700065746572202300202020200000476574C4
:1029800020535769746368204D6F646500202000F0
:102990003E00696E740020203C003E3A00475357C9
:1029A0004D003C002020202000496D6D6564696168
:1029B00074652D466C616720617573676562656E2D
:1029C0000020202020004B616E616C2D496E6465F3
:1029D00078202830203D20312E536368616C746B61
:1029E000616E616C2C20426572656963683A2030C3
:1029F0002D3729003E202000696E74003C003A20EB
:102A000020003100506172616D6574657220230091
:102A100020202020000047657420535769746368A4
:102A200020496D6D65646961746520466C6167005D
:102A30002020003E00696E740020203C003E3A00D9
:102A40004753574946003C0020202020004672652D
:102A500069676162652D5374617475732065696E71
:102A6000657320536368616C746B616E616C732075
:102A7000617573676562656E0020202020004B61E0
:102A80006E616C2D496E646578202830203D2031C0
:102A90002E536368616C746B616E616C2C204265AF
:102AA00072656963683A20302D3729003E20200086
:102AB000696E74003C003A20200031005061726160
:102AC0006D6574657220230020202020000047657A
:102AD000742053576974636820456E61626C6500A9
:102AE0002020003E00696E740020203C003E3A0029
:102AF00047535745003C0020202020004B616E6169
:102B00006C2D4B6F6E66696775726174696F6E20AC
:102B1000617573676562656E0020202020004B613F
:102B20006E616C2D496E646578202830203D20311F
:102B30002E536368616C746B616E616C2C2042650E
:102B400072656963683A20302D3729003E202000E5
:102B5000696E74003C003A202000310050617261BF
:102B60006D657465722023002020202000004765D9
:102B7000742053576974636820434F4E4649477524
:102B8000726174696F6E002020003E00696E7400EF
:102B900020203C003E3A00475357434F4E4649479A
:102BA000003C002020202000566572626C6569623E
:102BB000656E646520496D70756C736520696D2064
:102BC000496D70756C7362657472696562206175B8
:102BD00073676562656E0020202020004B616E6186
:102BE0006C2D496E646578202830203D20312E53AD
:102BF0006368616C746B616E616C2C2042657265F8
:102C00006963683A20302D3729003E202000696E24
:102C100074003C003A2020003100506172616D6503
:102C20007465722023002020202000004765742056
:102C300053576974636820436F756E7473204163E2
:102C40007475616C002020003E00696E74002020C5
:102C50003C003E3A004753574341003C00202020AF
:102C60002000496D70756C736520696D20496D7029
:102C7000756C7362657472696562206175736765EE
:102C800062656E0020202020004B616E616C2D4932
:102C90006E646578202830203D20312E53636861B2
:102CA0006C746B616E616C2C20426572656963683F
:102CB0003A20302D3729003E202000696E74003CF8
:102CC000003A2020003100506172616D65746572B8
:102CD00020230020202020000047657420535769DE
:102CE00074636820436F756E7473002020003E008B
:102CF000696E740020203C003E3A00475357430061
:102D00003C0020202020004173796E6368726F6E52
:102D10002D466C616720617573676562656E002082
:102D2000202020004B616E616C2D496E6465782017
:102D30002830203D20312E536368616C746B616EC6
:102D4000616C2C20426572656963683A20302D37CA
:102D500029003E202000696E74003C003A202000CB
:102D60003100506172616D6574657220230020200E
:102D70002020000047657420535769746368204120
:102D800073796E6368726F6E6F757320466C6167DE
:102D9000002020003E00696E740020203C003E3A76
:102DA000004753574146003C002020202000547229
:102DB00069676765722D466C616720617573676529
:102DC00062656E0020202020004B616E616C2D49F1
:102DD0006E646578202830203D20312E4E65747A4F
:102DE0007465696C2D536368616C746B616E616CA2
:102DF0002C20426572656963683A20302D372900BE
:102E00003E202000696E74003C003A202000310012
:102E1000506172616D65746572202300202020204E
:102E2000000047657420506F776572537550706C61
:102E300079205472696767657220466C616700206B
:102E400020003E00696E740020203C003E3A00479E
:102E50005053505446003C00202020200054696DFF
:102E6000696E672065696E6573204E65747A746556
:102E7000696C2D536368616C746B616E616C732057
:102E8000667565722064656E20546F67676C652D8A
:102E90002F496D70756C736265747269656220612B
:102EA0007573676562656E0020202020004B616E9F
:102EB000616C2D496E646578202830203D20312ECC
:102EC0004E65747A7465696C2D536368616C746BBC
:102ED000616E616C2C20426572656963683A2030CE
:102EE0002D3729003E202000696E74003C003A20F6
:102EF00020003100506172616D657465722023009D
:102F000020202020000047657420506F77657253A1
:102F10007550706C792054696D696E6700202000CF
:102F20003E00696E740020203C003E3A004750533A
:102F30005054003C0020202020004E6567617469D9
:102F40006F6E732D466C616720617573676562658E
:102F50006E0020202020004B616E616C2D496E6454
:102F60006578202830203D20312E4E65747A7465B6
:102F7000696C2D536368616C746B616E616C2C209D
:102F8000426572656963683A20302D3729003E201A
:102F90002000696E74003C003A202000310050612E
:102FA00072616D657465722023002020202000006E
:102FB00047657420506F776572537550706C792037
:102FC0004E65676174696F6E20466C6167002020F2
:102FD000003E00696E740020203C003E3A004750DD
:102FE00053504E46003C0020202020004265747261
:102FF0006965627361727420646573204E65747ACA
:103000007465696C2D536368616C746B616E616C7F
:103010007320617573676562656E00202020200053
:103020004B616E616C2D496E646578202830203DBF
:1030300020312E4E65747A7465696C2D5363686116
:103040006C746B616E616C2C20426572656963689B
:103050003A20302D3329003E202000696E74003C58
:10306000003A2020003100506172616D6574657214
:1030700020230020202020000047657420506F7717
:103080006572537550706C79204D6F646500202017
:10309000003E00696E740020203C003E3A0047501C
:1030A00053504D003C002020202000496D6D656488
:1030B000696174652D466C6167206175736765622F
:1030C000656E0020202020004B616E616C2D496EE2
:1030D000646578202830203D20312E4E65747A7446
:1030E00065696C2D536368616C746B616E616C2CE7
:1030F00020426572656963683A20302D3729003EA9
:10310000202000696E74003C003A202000310050FD
:103110006172616D6574657220230020202020009B
:103120000047657420506F776572537550706C79E5
:1031300020496D6D65646961746520466C61670046
:103140002020003E00696E740020203C003E3A00C2
:10315000475053504946003C002020202000467232
:103160006569676162652D53746174757320656963
:103170006E6573204E65747A7465696C2D5363684F
:10318000616C746B616E616C7320617573676562ED
:10319000656E0020202020004B616E616C2D496E11
:1031A000646578202830203D20312E4E65747A7475
:1031B00065696C2D536368616C746B616E616C2C16
:1031C00020426572656963683A20302D3729003ED8
:1031D000202000696E74003C003A2020003100502D
:1031E0006172616D657465722023002020202000CB
:1031F0000047657420506F776572537550706C7915
:1032000020456E61626C65002020003E00696E748E
:103210000020203C003E3A004750535045003C00FF
:1032200020202020004B616E616C2D4B6F6E666913
:103230006775726174696F6E206175736765626529
:103240006E0020202020004B616E616C2D496E6461
:103250006578202830203D20312E4E65747A7465C3
:10326000696C2D536368616C746B616E616C2C20AA
:10327000426572656963683A20302D3729003E2027
:103280002000696E74003C003A202000310050613B
:1032900072616D657465722023002020202000007B
:1032A00047657420506F776572537550706C792044
:1032B000434F4E46494775726174696F6E00202016
:1032C000003E00696E740020203C003E3A004750EA
:1032D0005350434F4E464947003C002020202000D9
:1032E000566572626C656962656E646520496D70D1
:1032F000756C736520696D20496D70756C736265BE
:10330000747269656220617573676562656E00201D
:10331000202020004B616E616C2D496E6465782021
:103320002830203D20312E4E65747A7465696C2DED
:10333000536368616C746B616E616C2C20426572C2
:10334000656963683A20302D3729003E20200069E6
:103350006E74003C003A2020003100506172616DB3
:1033600065746572202300202020200000476574CA
:1033700020506F776572537550706C7920436F756C
:103380006E74732041637475616C002020003E00F0
:10339000696E740020203C003E3A00475053504371
:1033A00041003C002020202000496D70756C736541
:1033B00020696D20496D70756C7362657472696502
:1033C0006220617573676562656E002020202000B1
:1033D0004B616E616C2D496E646578202830203D0C
:1033E00020312E4E65747A7465696C2D5363686163
:1033F0006C746B616E616C2C2042657265696368E8
:103400003A20302D3729003E202000696E74003CA0
:10341000003A2020003100506172616D6574657260
:1034200020230020202020000047657420506F7763
:103430006572537550706C7920436F756E747300AC
:103440002020003E00696E740020203C003E3A00BF
:103450004750535043003C00202020200041737906
:103460006E6368726F6E2D466C616720617573675D
:103470006562656E0020202020004B616E616C2D1E
:10348000496E646578202830203D20312E4E6574C9
:103490007A7465696C2D536368616C746B616E61DD
:1034A0006C2C20426572656963683A20302D37299B
:1034B000003E202000696E74003C003A202000315C
:1034C00000506172616D65746572202300202020B8
:1034D00020000047657420506F77657253755070F7
:1034E0006C79204173796E6368726F6E6F757320AB
:1034F000466C6167002020003E00696E7400202049
:103500003C003E3A00475053504146003C002020CA
:103510002020004B6F6E66696775726174696F6E0B
:1035200073706172616D6574657220617573676532
:1035300062656E00202020200057657274003E20D6
:103540002000696E74003C003A2020003200506177
:1035500072616D6574657220230020202020004177
:103560006E6761626520EFBFBD6265722064656E43
:10357000206175737A75676562656E64656E204B50
:103580006F6E66696775726174696F6E7370617270
:10359000616D657465722028454E41424C45290095
:1035A0003E202000696E74003C003A20200031006B
:1035B000506172616D6574657220230020202020A7
:1035C000000047657420436F6E4669470020200065
:1035D0003E00696E740020203C003E00696E74005D
:1035E00020203C003E3A0047434647003C00202054
:1035F0002020003A0047003A0045003A0044003AD3
:10360000004300008C2D11241FBECFEFD1E2DEBF9E
:10361000CDBF00E00CBF20E1A6E5B4E001C01D92E3
:10362000AB39B207E1F714E0A0E0B2E0E0E8FBEB71
:1036300000E00BBF02C007900D92A635B107D9F785
:103640001BE1C3E0DBE100E006C021970109802F08
:10365000FE010E94B65AC230D10780E00807A9F7E0
:103660000E94E62D0C94BE5D0C940000FC01A08924
:10367000B18982E08C93A485B5851C92A685B78517
:1036800080E18C93108EA489B58986E08C93A28901
:10369000B3898C9180618C93A289B3898C91886065
:1036A0008C93A289B3898C9180688C930288F3896A
:1036B000E02D80818F7D80830895843021F190E01A
:1036C000DC01A55FB74FD8962C91D897222371F0D3
:1036D000FC01EE0FFF1FE55DF74F20813181265081
:1036E00031092230310530F014961C9260E070E010
:1036F000CB010895FC01E050F84F10828450984FA0
:10370000FC011082F3CF61E070E080E090E008956A
:10371000AF92BF92CF92DF92EF92FF920F931F93DF
:10372000CF93DF936C017B018B01040F151FEB011D
:103730005E01AE18BF08C017D10759F06991D601D4
:10374000ED91FC910190F081E02DC6011995892B36
:1037500079F7C501DF91CF911F910F91FF90EF9005
:10376000DF90CF90BF90AF900895FC01538D448DB2
:10377000252F30E0842F90E0821B930B541710F01C
:10378000CF96089501970895FC01918D828D981729
:1037900061F0A28DAE0FBF2FB11D5D968C91928D01
:1037A0009F5F9F73928F90E008958FEF9FEF089532
:1037B000FC01918D828D981731F0828DE80FF11DFB
:1037C000858D90E008958FEF9FEF0895FC01918D16
:1037D000228D892F90E0805C9F4F821B91098F730F
:1037E0009927089587E498E00E94E61B21E0892B41
:1037F00009F420E0822F089584EE98E00E94E61BF1
:1038000021E0892B09F420E0822F0895FC01A48D8A
:10381000A80FB92FB11DA35ABF4F2C91848D90E0F2
:1038200001968F739927848FA689B7892C93A089D5
:10383000B1898C91837080648C93938D848D98135F
:1038400006C00288F389E02D80818F7D80830895F2
:10385000EF92FF920F931F93CF93DF93EC0181E0E0
:10386000888F9B8D8C8D98131AC0E889F989808187
:1038700085FF15C09FB7F894EE89FF896083E889BA
:10388000F98980818370806480839FBF81E090E0AC
:10389000DF91CF911F910F91FF90EF900895F62E39
:1038A0000B8D10E00F5F1F4F0F731127E02E8C8DD3
:1038B0008E110CC00FB607FCFACFE889F989808118
:1038C00085FFF5CFCE010E94061CF1CFEB8DEC0FEA
:1038D000FD2FF11DE35AFF4FF0829FB7F8940B8F35
:1038E000EA89FB8980818062CFCF0F931F93CF93AA
:1038F000DF938C01D0E0C0E0F801EC0FFD1F649174
:10390000662341F087E498E00E94281C892B11F07F
:103910002196F2CFCE01DF91CF911F910F910895A3
:10392000CF93DF93EC01888D8823B9F0AA89BB89F6
:10393000E889F9898C9185FD03C0808186FD0DC0E1
:103940000FB607FCF7CF8C9185FFF2CF808185FF02
:10395000EDCFCE010E94061CE9CFDF91CF910895F3
:1039600080E090E0892B29F00E94FC1B81110E94CD
:10397000000080E090E0892B49F080E090E0892B06
:1039800029F00E94000081110E94000080E090E078
:10399000892B49F080E090E0892B29F00E940000FB
:1039A00081110E94000080E090E0892B29F00E94A4
:1039B000F21B81110C94000008958150823108F0AF
:1039C0005AC0E82FF0E08827E751F34E8F4F0C9450
:1039D000B65A091D0D1DFB1C011D051D3B1D101DAB
:1039E000161D1A1D201D241D281D2E1D321D3B1DB8
:1039F000361D3C1D401D809180008F778093800094
:103A00000895809180008F7DF9CF80918000877F1D
:103A1000F5CF84B58F7784BD089584B58F7DFBCFB6
:103A20008091B0008F778093B00008958091B000AE
:103A30008F7DF9CF809190008F77809390000895CB
:103A4000809190008F7DF9CF80919000877FF5CF96
:103A50008091A0008F778093A00008958091A000AE
:103A60008F7DF9CF8091A000877FF5CF80912001D5
:103A70008F77809320010895809120018F7DF9CF69
:103A800080912001877FF5CFCF93DF93282F30E0FF
:103A9000F901EF54FD4F8491F901E559FD4FD4919F
:103AA000F901EB5DFD4FC491CC23A1F081110E947F
:103AB000DD1CEC2FF0E0EE0FFF1FE55FFD4FA59141
:103AC000B491EC91ED2381E090E009F480E0DF9186
:103AD000CF91089580E090E0FACF1F93CF93DF93CA
:103AE000282F30E0F901EF54FD4F8491F901E55999
:103AF000FD4FD491F901EB5DFD4FC491CC23A9F0AA
:103B0000162F81110E94DD1CEC2FF0E0EE0FFF1F3D
:103B1000EF50FE4FA591B4918FB7F894EC9111112D
:103B200008C0D095DE23DC938FBFDF91CF911F912A
:103B30000895DE2BF8CFCF93DF9390E0FC01E55999
:103B4000FD4F24918B5D9D4FFC0184918823D1F022
:103B500090E0880F991FFC01E952FE4FA591B491A6
:103B6000FC01EF50FE4FC591D49161110EC09FB77B
:103B7000F8948C91E22FE0958E238C932881E22398
:103B8000E8839FBFDF91CF9108958FB7F894EC91B0
:103B9000E22BEC938FBFF6CF863308F0865320914B
:103BA0007B00982F9870277F922B90937B00209119
:103BB000100290E4299F900111248770822B80933A
:103BC0007C0080917A00806480937A0080917A00F2
:103BD00086FDFCCF809178009091790008953FB7E1
:103BE000F8948091570490915804A0915904B09191
:103BF0005A0426B5A89B05C02F3F19F00196A11DB8
:103C0000B11D3FBFBA2FA92F982F8827BC01CD0126
:103C1000620F711D811D911D42E0660F771F881F85
:103C2000991F4A95D1F708958F929F92AF92BF92B4
:103C3000CF92DF92EF92FF924B015C010E94EF1D49
:103C40006B017C010E94EF1D6C197D098E099F0993
:103C5000683E734081059105A8F321E0821A91081E
:103C6000A108B10888EEC80E83E0D81EE11CF11C43
:103C700081149104A104B10429F7FF90EF90DF9023
:103C8000CF90BF90AF909F908F900895E82FF0E075
:103C9000DF01AA0FBB1FA050BE4F11967C936E93FD
:103CA000883008F069C08827E75AF14E8F4F0C948E
:103CB000B65A8F1E971E611E691E751E821EA31E98
:103CC000B01E809169008C7F482B40936900E89A70
:103CD000089580916900837F440F551F440F551F3D
:103CE000482B40936900E99A0895809169008F7C80
:103CF00074E0440F551F7A95E1F7482B4093690013
:103D0000EA9A0895809169008F7366E0440F551F09
:103D10006A95E1F7482B40936900EB9A08958091EA
:103D20006A008C7F482B40936A00EC9A089580913A
:103D30006A00837F440F551F440F551F482B409343
:103D40006A00ED9A089580916A008F7C24E0440F08
:103D5000551F2A95E1F7482B40936A00EE9A089583
:103D600080916A008F7396E0440F551F9A95E1F792
:103D7000482B40936A00EF9A08950895CF93DF93FC
:103D8000EC0168A581E068278E850E946D1D81E0A9
:103D900090E0998388838E819F81A885B985488D1D
:103DA000598D6A8D7B8D840F951FA61FB71F8E833B
:103DB0009F83A887B987DF91CF9108954F925F9233
:103DC0006F927F928F929F92AF92BF92CF92DF922B
:103DD000EF92FF920F931F93CF93DF9300D000D009
:103DE000CDB7DEB79E838D83FC01E259FF4F008182
:103DF0001181D8016D917D918D919C91ED81FE8114
:103E00002689378922303105D8F466837783808705
:103E1000918726960FB6F894DEBF0FBECDBFDF9117
:103E2000CF911F910F91FF90EF90DF90CF90BF90B7
:103E3000AF909F908F907F906F905F904F9008957C
:103E4000ED81FE8122A5222361F061507109810973
:103E50009109DF0166837783808791871D921C9289
:103E6000D8CFED81FE8140A051A062A073A064195B
:103E7000750986099709C08CD18CE28CF38C4601B8
:103E80005701880C991CAA1CBB1C21A5222309F4EC
:103E900057C0A50194010E94945AC501B4010E9423
:103EA000845A9B01AC01240D351D461D571D2983E5
:103EB0003A834B835C83AD81BE8116962D933D93EF
:103EC0004D935C931997F801608171818281938190
:103ED0006419750986099709A50194010E94945AED
:103EE000AD81BE816C157D058E059F0508F4B6CFAA
:103EF00029813A814B815C81C20ED31EE41EF51EDE
:103F0000AD81BE811696CD92DD92ED92FC9219970D
:103F100081E090E011969C938E939B968C919B9759
:103F2000882309F476CFFD0182859385A485B58524
:103F30000196A11DB11D82879387A487B58769CF9C
:103F40006150710981099109A50194010E94945A57
:103F50002F5F3F4F4F4F5F4FC501B4010E94845AFE
:103F6000460E571E681E791EAD81BE8116964D9273
:103F70005D926D927C92199771CFCF93DF93EC0194
:103F800068A58E850E946D1D198218828E819F8181
:103F9000A885B9854C8D5D8D6E8D7F8D840F951FA5
:103FA000A61FB71F8E839F83A887B987DF91CF9104
:103FB00008958F929F92AF92BF92DF92EF92FF92FD
:103FC0000F931F93CF93DF93109285091092860968
:103FD000109287091092880985E30E94441D61E0D0
:103FE000892B09F060E085E30E946D1DC1E8D9E0EE
:103FF00010E000E02FB7F894809160049091610484
:10400000A0916204B09163042FBF809381099093C3
:104010008209A0938309B0938409D02E8A858823CE
:1040200091F07E0188E0E80EF11C8C859D85813041
:10403000910509F43FC0B0F18230910509F442C006
:10404000039709F479C08E890E94441D21E030E075
:10405000892B11F430E020E0C90102C0880F991FBC
:10406000DA94E2F7092E000CAA0BBB0B80938509AA
:1040700090938609A0938709B09388090F5F1F4F1B
:10408000C059DF4F0031110509F0B4CFDF91CF9156
:104090001F910F91FF90EF90DF90BF90AF909F9096
:1040A0008F90089588859985019769F6C7010E94C8
:1040B000BD1FC9CF88859985892B29F6C7010E9424
:1040C000BE1EC1CF8CA19DA1AEA1BFA1892B8A2B01
:1040D0008B2B09F4B8CF88A199A1AAA1BBA1892BE8
:1040E0008A2B8B2B09F4AFCF6E857F8588899989C0
:1040F0000E941A584B015C01FE01EA58FF4F0190E3
:10410000F081E02D60817181828193810E941A5833
:1041100020E030E040E251E40E946D599B01AC0187
:10412000C501B4010E94155887FF8DCF88859985F8
:10413000892B09F0BBCFC2CF8CA19DA1AEA1BFA19D
:10414000892B8A2B8B2B09F47ECF88A199A1AAA158
:10415000BBA1892B8A2B8B2B09F475CF8A899B896C
:10416000AC89BD89892B8A2B8B2B09F46CCF6E858A
:104170007F85888999890E941A584B015C01FE014C
:10418000EA58FF4F0190F081E02D608171818281BA
:1041900093810E941A5820E030E040E251E40E94EE
:1041A0006D599B01AC01C501B4010E94155887FFF0
:1041B0004ACF88859985892B09F480CFC7010E9451
:1041C000BD1F8A899B89AC89BD890197A109B10965
:1041D0008A8B9B8BAC8BBD8B36CFFC010190002072
:1041E000E9F73197AF01481B590BBC0187E498E010
:1041F0000C94881B8F929F92AF92BF920F931F9344
:10420000CF93DF93CDB7DEB7A1970FB6F894DEBF9B
:104210000FBECDBF19A2423008F44AE08E010F5DF7
:104220001F4F842E912CB12CA12CA50194010E942A
:10423000945AE62FB901CA01EA30F4F4E05DD801DE
:10424000EE938D01232B242B252B79F790E080E032
:10425000109719F0CD010E94ED20A1960FB6F894A9
:10426000DEBF0FBECDBFDF91CF911F910F91BF90E9
:10427000AF909F908F900895E95CE1CF009711F087
:104280000C94ED2090E080E00895CF93DF9386E3D7
:1042900092E00E94ED20EC0184E392E00E94ED2088
:1042A0008C0F9D1FDF91CF910895CF93DF930E94D4
:1042B000751CEC0184E392E00E94ED208C0F9D1FA1
:1042C000DF91CF9108950F931F93CF93DF9300D089
:1042D00000D01F921F92CDB7DEB71F9293E09F933D
:1042E0001F928F931F9282E08F9387E392E09F93B8
:1042F0008F938E010F5F1F4F1F930F930E94E85AF9
:10430000C8010E943E210FB6F894DEBF0FBECDBF9C
:1043100028960FB6F894DEBF0FBECDBFDF91CF91C8
:104320001F910F910895CF92DF92EF92FF920F931A
:104330001F93CF93DF931F921F92CDB7DEB76C010F
:104340001F9282E08F9385E4E82E82E0F82EFF92A0
:10435000EF928E010F5F1F4F1F930F930E94E85A39
:10436000C8010E943E21C6010E943E211F9283E0A7
:104370008F93FF92EF921F930F930E94E85AC80108
:104380000E943E210FB6F894DEBF0FBECDBF0F9046
:104390000F90DF91CF911F910F91FF90EF90DF90E1
:1043A000CF9008950F931F93CF93DF9300D000D049
:1043B0001F921F92CDB7DEB71F9283E08F931F929B
:1043C00082E08F9381E492E09F938F938E010F5F41
:1043D0001F4F1F930F930E94E85AC8010E943E216D
:1043E0000FB6F894DEBF0FBECDBF28960FB6F89477
:1043F000DEBF0FBECDBFDF91CF911F910F9108950A
:104400000F931F93CF93DF93CDB7DEB760970FB6AF
:10441000F894DEBF0FBECDBF1F9223E02F939F9372
:104420008F937F936F931F9282E08F9388E492E043
:104430009F938F938E010F5F1F4F1F930F930E94C7
:10444000E85AC8010E943E210FB6F894DEBF0FBEA5
:10445000CDBF60960FB6F894DEBF0FBECDBFDF9123
:10446000CF911F910F910895CF93C82F8CEF94E0B7
:104470000E9452566830710581059105D0F4E62FEF
:10448000C11102C0E8E0E60F80E7E89FF0011124C7
:10449000EF57F64F83A9811103C082E592E002C075
:1044A00080E592E00E94932160E070E0CB01CF9123
:1044B000089586E00E94632162E070E080E090E071
:1044C000F6CFAF92BF92CF92DF92EF92FF920F930F
:1044D0001F93CF93DF93CDB7DEB72E970FB6F89427
:1044E000DEBF0FBECDBF182F8CEF94E00E94525656
:1044F000683071058105910508F06DC0E62F111136
:1045000002C0E8E0E60F90E7E99FF0011124EF57C1
:10451000F64F80A191A1A2A1B3A189839A83AB8315
:10452000BC8384A195A1A6A1B7A18D839E83AF83EF
:10453000B88780A591A5A2A5B3A589879A87AB87DF
:10454000BC871F9282E08F9385E492E09F938F93C4
:104550008E01035F1F4F1F930F930E94E85AC801FB
:104560000E943E210F900F900F900F900F900F9090
:1045700083E0B82E93E0C92ED12C20E2A22E35E4A0
:10458000E32E32E0F32EF601EB19F109EE0FFF1FD7
:10459000EE0FFF1F81E090E08C0F9D1FE80FF91FC9
:1045A00060817181828193814AE00E94FA20BA94ED
:1045B000BA941F92AF92FF92EF921F930F930E94B3
:1045C000E85AC8010E943E210F900F900F900F9063
:1045D0000F900F90D8CF86E00E94632162E070E0D8
:1045E00080E090E02E960FB6F894DEBF0FBECDBFF0
:1045F000DF91CF911F910F91FF90EF90DF90CF90BF
:10460000BF90AF900895CF93C82F8CEF94E00E9495
:1046100052566830710581059105D0F4E62FC1111D
:1046200002C0E8E0E60F80E7E89FF0011124EF57B1
:10463000F64F80A9811103C082E592E002C080E5B7
:1046400092E00E94932160E070E0CB01CF91089549
:1046500086E00E94632162E070E080E090E0F6CFA7
:10466000CF93C82F8CEF94E00E94525668307105AA
:1046700081059105A8F4E62FC11102C0E8E0E60F1C
:1046800080E7E89FF0011124EF57F64F668D778D94
:1046900090E080E00E94002260E070E0CB0107C063
:1046A00086E00E94632162E070E080E090E0CF91BC
:1046B0000895CF93C82F8CEF94E00E945256683033
:1046C000710581059105D0F4E62FC11102C0E8E023
:1046D000E60F80E7E89FF0011124EF57F64F81A91C
:1046E000811103C082E592E002C080E592E00E9461
:1046F000932160E070E0CB01CF91089586E00E94A5
:10470000632162E070E080E090E0F6CFCF93C82FA5
:104710008CEF94E00E945256683071058105910536
:10472000D0F4E62FC11102C0E8E0E60F80E7E89F71
:10473000F0011124EF57F64F8285811103C082E505
:1047400092E002C080E592E00E94932160E070E078
:10475000CB01CF91089586E00E94632162E070E072
:1047600080E090E0F6CF0F931F93CF93DF93CDB708
:10477000DEB7C058D1090FB6F894DEBF0FBECDBF6B
:10478000182F8CEF94E00E94525668307105810515
:10479000910508F080C0E62F111102C0E8E0E60F95
:1047A00080E7E89FF0011124EF57F64F83A91F928D
:1047B0008F9380A91F928F9381A91F928F9382A9B3
:1047C0001F928F93DF01529613968C9113978F93BC
:1047D00012968C9112978F9311968C9111978F93BB
:1047E00082898F935A9613968C9113978F93129672
:1047F0008C9112978F9311968C9111978F9384A51A
:104800008F93149713968C9113978F9312968C9184
:1048100012978F9311968C9111978F9380A58F93F8
:10482000149713968C9113978F9312968C911297DD
:104830008F9311968C9111978F9384A18F931497D6
:1048400013968C9113978F9312968C9112978F9346
:1048500011968C918F9380A18F93878D8F93868DE6
:104860008F9382851F928F9384E592E09F938F931D
:104870008E010F5F1F4F1F930F930E94E85A0FB6D0
:10488000F894DEBF0FBECDBFC8010E94932160E047
:1048900070E0CB0107C086E00E94632162E070E017
:1048A00080E090E0C058DF4F0FB6F894DEBF0FBE37
:1048B000CDBFDF91CF911F910F910895CF93C82F56
:1048C0008CEF94E00E945256683071058105910585
:1048D000A8F4E62FC11102C0E8E0E60F80E7E89FE8
:1048E000F0011124EF57F64F628973898489958905
:1048F0000E94002260E070E0CB0107C086E00E94C9
:10490000632162E070E080E090E0CF910895CF9362
:10491000C82F8CEF94E00E945256683071058105D3
:104920009105A8F4E62FC11102C0E8E0E60F80E788
:10493000E89FF0011124EF57F64F64A575A586A5F1
:1049400097A50E94002260E070E0CB0107C086E0DE
:104950000E94632162E070E080E090E0CF910895D2
:10496000CF93C82F8CEF94E00E94525668307105A7
:1049700081059105D0F4E62FC11102C0E8E0E60FF1
:1049800080E7E89FF0011124EF57F64F82A98111CB
:1049900003C082E592E002C080E592E00E9493218C
:1049A00060E070E0CB01CF91089586E00E94632122
:1049B00062E070E080E090E0F6CFFF920F931F93EB
:1049C000CF93DF93EC01F62E08811981C8010E9474
:1049D0003C59F81621F06F2DC8010E944459CE01B0
:1049E000DF91CF911F910F91FF900895EF92FF9269
:1049F0000F931F93CF93DF931F921F92CDB7DEB714
:104A000083E2E82E88E0F82E00E014E01A830983A0
:104A1000F70161917F01CE0101960E94DD240F5FB5
:104A20001F4F0432F4E01F0789F783E298E00F90EC
:104A30000F90DF91CF911F910F91FF90EF9008950C
:104A4000EF92FF920F931F93CF93DF931F921F92CA
:104A5000CDB7DEB704E018E0845098407C01C70170
:104A6000800F911F9A838983F8016281CE0101969C
:104A70000E94DD240F5F1F4FF8E009301F0779F710
:104A800086E098E00F900F90DF91CF911F910F91EA
:104A9000FF90EF900895AF92BF92CF92DF92EF9286
:104AA000FF920F931F93CF93DF931F921F92CDB767
:104AB000DEB78B016B012CE5C20ED11C7B015C01C2
:104AC000A61AB70AC5018E0D9F1D9A838983F70127
:104AD00061917F01CE0101960E94DD24EC14FD045A
:104AE00089F7C8010F900F90DF91CF911F910F911F
:104AF000FF90EF90DF90CF90BF90AF9008958F928E
:104B00009F92AF92BF92CF92DF92EF92FF921F934C
:104B1000CF93DF93D82F8CEF94E00E9452564B0135
:104B20005C018CE395E00E945256162FC72FC62ECB
:104B3000D72E7C018CE795E00E94525628E0821621
:104B40009104A104B104E8F524E0C216D104E10403
:104B5000F104B8F5482DD11102C048E0480D672B8B
:104B6000682B692B21F430E02FEF90E003C0212F58
:104B70009C2F31E0C42FD0E080E7489FB001112482
:104B8000FB01EF57F64F33AB24AB95AB138665565D
:104B9000764F8789908D0E944B25C757DF4E18832B
:104BA0000E94D22160E070E0CB01DF91CF911F9194
:104BB000FF90EF90DF90CF90BF90AF909F908F903D
:104BC000089586E00E94632162E070E080E090E05A
:104BD000ECCF4F925F926F927F928F929F92AF92A3
:104BE000BF92CF92DF92EF92FF92CF93C82F8CEFBC
:104BF00094E00E9452562B013C018CE395E00E9408
:104C000052564B015C018CE795E00E9452566B01B5
:104C10007C018CEB95E00E94525628E0421651042C
:104C20006104710428F5242DC11102C028E0240D6F
:104C300040E7249F90011124F901EF57F64F80A21D
:104C400091A2A2A2B3A2C4A2D5A2E6A2F7A260A793
:104C500071A782A793A7B9016556764F8789908D72
:104C60000E944B250E94D22160E070E0CB0107C07A
:104C700086E00E94632162E070E080E090E0CF91E6
:104C8000FF90EF90DF90CF90BF90AF909F908F906C
:104C90007F906F905F904F900895CF92DF92EF9248
:104CA000FF92CF93C82F8CEF94E00E9452566B0175
:104CB0007C018CE395E00E94525628E0C216D10494
:104CC000E104F104F8F421E0672B682B692B09F467
:104CD00020E06C2DC11102C068E06C0D80E7689F78
:104CE000B0011124FB01EF57F64F20AB6556764F0C
:104CF0008789908D0E944B250E94D22160E070E050
:104D0000CB0107C086E00E94632162E070E080E092
:104D100090E0CF91FF90EF90DF90CF900895CF92E9
:104D2000DF92EF92FF92CF93C82F8CEF94E00E9416
:104D300052566B017C018CE395E00E94525628E0AC
:104D4000C216D104E104F104F8F421E0672B682BCA
:104D5000692B09F420E06C2DC11102C068E06C0DD4
:104D600080E7689FB0011124FB01EF57F64F21AB9C
:104D70006556764F8789908D0E944B250E94D221DF
:104D800060E070E0CB0107C086E00E94632162E032
:104D900070E080E090E0CF91FF90EF90DF90CF90B7
:104DA0000895CF92DF92EF92FF92CF93C82F8CEFAE
:104DB00094E00E9452566B017C018CE395E00E94C6
:104DC000525628E0C216D104E104F104F8F421E0BF
:104DD000672B682B692B09F420E06C2DC11102C0F0
:104DE00068E06C0D80E7689FB0011124FB01EF576C
:104DF000F64F22AB6556764F8789908D0E944B25E2
:104E00000E94D22160E070E0CB0107C086E00E94E2
:104E1000632162E070E080E090E0CF91FF90EF903E
:104E2000DF90CF900895CF92DF92EF92FF92CF93D1
:104E3000C82F8CEF94E00E9452566B017C018CE3EA
:104E400095E00E94525628E0C216D104E104F10414
:104E500008F52C2DC11102C028E02C0D40E7249F3D
:104E600090011124F901EF57F64F64A775A786A7A3
:104E700097A7628B738B848B958BB9016556764FA0
:104E80008789908D0E944B250E94D22160E070E0BE
:104E9000CB0107C086E00E94632162E070E080E001
:104EA00090E0CF91FF90EF90DF90CF900895EF9238
:104EB000FF920F931F93CF93DF93EC018B010E941E
:104EC000BD1F7E0182E1E80EF11C0230110521F1C7
:104ED0000330110561F101301105B9F01F8A1E8AF6
:104EE0001D821C8281E090E099838883B7018F85C1
:104EF00098890E944B2560E070E0CB01DF91CF9153
:104F00001F910F91FF90EF9008951F8B0E8B1D83C3
:104F10000C8319821882EACF1F8B0E8B1D830C83A2
:104F20008A81882319F3CE010E94DE1EDFCF1F8BFA
:104F30000E8B1D830C838CA19DA1AEA1BFA18A877E
:104F40009B87AC87BD87B7018F8598890E944B25C9
:104F500081E08AA7B7018F8598890E944B25E0CF11
:104F6000CF92DF92EF92FF92CF93C82F8CEF94E015
:104F70000E9452566B017C0128E0C216D104E10464
:104F8000F10430F56AE772E08CE395E00E94C55ABF
:104F9000892B71F58C2DC11102C088E08C0D20E7A2
:104FA000829FC001112470E060E08757964F0E94F5
:104FB00057276B017C01C114D104E104F10409F409
:104FC00058C086E0C816D104E104F10409F04DC0D0
:104FD00086E00E94632186E0C82ED12CE12CF12CC2
:104FE000C701B601CF91FF90EF90DF90CF90089569
:104FF0006FE374E08CE395E00E94C55A892B61F45D
:105000008C2DC11102C088E08C0D20E7829FC00169
:10501000112461E070E0C9CF6EE772E08CE395E0A7
:105020000E94C55A892B61F48C2DC11102C088E001
:105030008C0D20E7829FC001112462E070E0B5CFA3
:1050400065E872E08CE395E00E94C55A892B09F06F
:10505000BFCF8C2DC11102C088E08C0D20E7829F4C
:10506000C001112463E070E0A0CF85E00E946321BD
:10507000B7CF0E94D221B4CF1F93CF93DF93EC011F
:10508000162F6A8380910A08882359F08BA5811115
:1050900008C06EA7BE016E5E7F4F8F8598890E9403
:1050A0004B258E899F89039761F48CA19DA1AEA1A8
:1050B000BFA10097A105B10581F08A879B87AC87C6
:1050C000BD87CE01112371F00E94DE1E60E070E00A
:1050D000CB01DF91CF911F91089582E090E09D83F5
:1050E0008C83EFCF0E94BD1FF1CFFF920F931F93D0
:1050F000CF93DF93F82E09E810E1D0E0C0E0F8018B
:1051000081918F018F1106C061E0CE018757964FC4
:105110000E943C28C059DF4FC115F7E0DF0779F73F
:10512000DF91CF911F910F91FF90089580912A08F0
:10513000882361F08091FF07811108C083E00E94FD
:10514000752881E08093FF0780930308089580917C
:105150002908882361F08091FE07811108C082E050
:105160000E94752881E08093FE07809302080895CD
:1051700080912808882361F08091FD07811108C083
:1051800081E00E94752881E08093FD0780930108EB
:10519000089585E30E94441D61E0892B09F060E0D9
:1051A00085E30E946D1D80912708882359F0809126
:1051B000FC07811107C00E94752881E08093FC07DD
:1051C0008093000808952F923F924F925F926F92C2
:1051D0007F928F929F92AF92BF92CF92DF92EF9287
:1051E000FF920F931F93CF93DF93CDB7DEB76F97E7
:1051F0000FB6F894DEBF0FBECDBF8E8F8CEF94E05C
:105200000E9452562B013C018CE395E00E945256BD
:105210006B017C018CEB95E00E94525669837A8386
:105220008B839C838CEF95E00E9452566D837E8326
:105230008F8398878CE396E00E94525669877A871D
:105240008B879C878CE796E00E9452564B015C014D
:105250008CEB96E00E9452566D877E878F87988BE5
:105260008CEF96E00E945256698B7A8B8B8B9C8BCD
:105270008CE397E00E9452566D8B7E8B8F8B988FBC
:105280008CE797E00E9452566D8F8CEB97E00E945E
:105290005256698F7A8F8B8F9C8F28E0421651046B
:1052A0006104710408F056C161E0CD28CE28CF28F2
:1052B00009F460E0042D3E8D311102C008E0040DB8
:1052C000202E312CE0E70E9F8001112498012757F2
:1052D000364F3F8F2E8FC9010E943C286B017C0105
:1052E0006AE772E08CE795E00E94C55A892B09F0C5
:1052F000EAC070E060E08E8D9F8D0E945727C60E39
:10530000D71EE81EF91E80E7829DA001839D500DE7
:1053100011244F57564F5F8F4E8F89819A81AB81F1
:10532000BC81FA0180A391A3A2A3B3A32D813E81E6
:105330004F81588524A335A346A357A329853A85D1
:105340004B855C8520A731A742A753A70556164F6A
:10535000B8018789908D0E944B25EE8DFF8D84A624
:1053600095A6A6A6B7A6828A938AA48AB58AB8010A
:105370008789908D0E944B2581E02D853E854F8544
:105380005889232B242B252B09F480E0AE8DBF8D6B
:10539000D2968C9380E7829DF001839DF00D1124BD
:1053A000EF57F64FFA83E983B8018789908D0E9401
:1053B0004B2581E029893A894B895C89232B242B51
:1053C000252B09F480E0A981BA81D1968C9380E7DE
:1053D000829DF001839DF00D1124EF57F64FFA8363
:1053E000E983B8018789908D0E944B2581E02D8942
:1053F0003E894F89588D232B242B252B09F480E0DF
:10540000A981BA81D0968C9380E7829DF001839D1B
:10541000F00D1124EF57F64FB8018789908D0E9447
:105420004B25BD8DB43008F089C021E0898D9A8D5F
:10543000AB8DBC8D892B8A2B8B2B09F420E0AD8D95
:105440008A2F90E08F3F910509F47CC021117CC028
:105450008FEF90E030E7329DF001339DF00D112485
:10546000EF57F64F23AB95AB84AB1386B801878912
:10547000908D0E944B25F101E757FF4EBD8DB08303
:10548000C114D104E104F10409F060C00E94D221EA
:10549000C701B6016F960FB6F894DEBF0FBECDBF41
:1054A000DF91CF911F910F91FF90EF90DF90CF9000
:1054B000BF90AF909F908F907F906F905F904F9034
:1054C0003F902F9008956FE374E08CE795E00E9481
:1054D000C55A892B59F440E7449DC001459D900D64
:1054E000112461E070E08757964F07CF6EE772E0B6
:1054F0008CE795E00E94C55A892B49F450E7549DEA
:10550000C001559D900D112462E070E0ECCF65E87C
:1055100072E08CE795E00E94C55A892B49F4A0E718
:10552000A49DC001A59D900D112463E070E0DBCF28
:10553000BFEFCB1ADB0AEB0AFB0AE5CE20E09FEFB8
:105540009D8F7DCF20E086CF21E084CF85E00E9433
:1055500063219ECF86E00E94632182E0C82ED12C79
:10556000E12CF12C95CFCF92DF92EF92FF92CF9367
:10557000C82F8CEF94E00E9452566B017C018CE3A3
:1055800095E00E94525628E0C216D104E104F104CD
:1055900068F521E0672B682B692B09F420E08C2D3E
:1055A000C11102C088E08C0D30E7839FC001112437
:1055B000622F8757964F0E943C286B017C01C114D3
:1055C000D104E104F10451F40E94D221C701B601D3
:1055D000CF91FF90EF90DF90CF90089585E00E94EB
:1055E0006321C12CD12C7601C394F0CF86E00E94B8
:1055F000632182E0C82ED12CE12CF12CE7CF1F9241
:105600000F920FB60F9211240BB60F922F933F9368
:105610004F935F936F937F938F939F93AF93BF93BA
:10562000EF93FF9387E498E00E94061CFF91EF91AF
:10563000BF91AF919F918F917F916F915F914F91AA
:105640003F912F910F900BBE0F900FBE0F901F90A8
:1056500018951F920F920FB60F9211240BB60F924E
:105660002F938F939F93EF93FF93E0915708F091BF
:1056700058088081E0915D08F0915E0882FD1DC0B0
:105680009081809160088F5F8F73209161088217ED
:1056900041F0E0916008F0E0E95BF74F958F80936F
:1056A0006008FF91EF919F918F912F910F900BBE0A
:1056B0000F900FBE0F901F9018958081F2CF1F9210
:1056C0000F920FB60F9211240BB60F922F933F93A8
:1056D0004F935F936F937F938F939F93AF93BF93FA
:1056E000EF93FF9384EE98E00E94061CFF91EF91E8
:1056F000BF91AF919F918F917F916F915F914F91EA
:105700003F912F910F900BBE0F900FBE0F901F90E7
:1057100018951F920F920FB60F9211240BB60F928D
:105720002F938F939F93EF93FF93E091F408F09161
:10573000F5088081E091FA08F091FB0882FD1DC018
:1057400090818091FD088F5F8F732091FE088217F2
:1057500041F0E091FD08F0E0EC51F74F958F809318
:10576000FD08FF91EF919F918F912F910F900BBEAC
:105770000F900FBE0F901F9018958081F2CF1F924F
:105780000F920FB60F9211242F933F938F939F93F5
:10579000AF93BF938091600490916104A0916204E3
:1057A000B09163043091560423E0230F2D3758F550
:1057B0000196A11DB11D209356048093600490931F
:1057C0006104A0936204B0936304809157049091A4
:1057D0005804A0915904B0915A040196A11DB11D1D
:1057E0008093570490935804A0935904B0935A049B
:1057F000BF91AF919F918F913F912F910F900FBECD
:105800000F901F90189526E8230F0296A11DB11D39
:10581000D2CF1F920F920FB60F9211240BB60F9298
:105820002F933F934F935F936F937F938F939F93A8
:10583000AF93BF93EF93FF93E0910E02F0910F02AD
:105840001995FF91EF91BF91AF919F918F917F91AA
:105850006F915F914F913F912F910F900BBE0F90E1
:105860000FBE0F901F9018951F920F920FB60F92B8
:1058700011240BB60F922F933F934F935F936F9327
:105880007F938F939F93AF93BF93EF93FF93E09199
:105890000C02F0910D021995FF91EF91BF91AF911C
:1058A0009F918F917F916F915F914F913F912F9138
:1058B0000F900BBE0F900FBE0F901F9018951F9268
:1058C0000F920FB60F9211240BB60F922F933F93A6
:1058D0004F935F936F937F938F939F93AF93BF93F8
:1058E000EF93FF93E0910202F09103021995FF916B
:1058F000EF91BF91AF919F918F917F916F915F9148
:105900004F913F912F910F900BBE0F900FBE0F90B4
:105910001F9018951F920F920FB60F9211240BB67D
:105920000F922F933F934F935F936F937F938F9338
:105930009F93AF93BF93EF93FF93E0910002F09199
:1059400001021995FF91EF91BF91AF919F918F91B6
:105950007F916F915F914F913F912F910F900BBE6F
:105960000F900FBE0F901F9018951F920F920FB6B9
:105970000F9211240BB60F922F933F934F935F9387
:105980006F937F938F939F93AF93BF93EF93FF9307
:10599000E0910A02F0910B021995FF91EF91BF91EE
:1059A000AF919F918F917F916F915F914F913F91B7
:1059B0002F910F900BBE0F900FBE0F901F90189558
:1059C0001F920F920FB60F9211240BB60F922F93C6
:1059D0003F934F935F936F937F938F939F93AF9377
:1059E000BF93EF93FF93E0910802F091090219959C
:1059F000FF91EF91BF91AF919F918F917F916F91A7
:105A00005F914F913F912F910F900BBE0F900FBE62
:105A10000F901F9018951F920F920FB60F9211249E
:105A20000BB60F922F933F934F935F936F937F9398
:105A30008F939F93AF93BF93EF93FF93E0910602F1
:105A4000F09107021995FF91EF91BF91AF919F914E
:105A50008F917F916F915F914F913F912F910F9017
:105A60000BBE0F900FBE0F901F9018951F920F92B4
:105A70000FB60F9211240BB60F922F933F934F93B3
:105A80005F936F937F938F939F93AF93BF93EF93A6
:105A9000FF93E0910402F09105021995FF91EF91B7
:105AA000BF91AF919F918F917F916F915F914F9136
:105AB0003F912F910F900BBE0F900FBE0F901F9034
:105AC00018951F920F920FB60F9211240BB60F92DA
:105AD0002F933F934F935F936F937F938F939F93F6
