:100000000C94011B0C94D62E0C94AB2E0C94802EC9
:100010000C94552E0C942A2E0C94FF2D0C94D42D58
:100020000C94A92D0C94321B0C94321B0C94321B93
:100030000C94321B0C94321B0C94321B0C94321B0C
:100040000C94321B0C94321B0C94321B0C94321BFC
:100050000C94012F0C94321B0C94321B0C945F2DCA
:100060000C94321B0C94292D0C94FF2C0C94321BF5
:100070000C94321B0C94321B0C94321B0C94321BCC
:100080000C94321B0C94321B0C94321B0C94321BBC
:100090000C94321B0C94321B0C94321B0C94321BAC
:1000A0000C94321B0C94321B0C94321B0C94321B9C
:1000B0000C94321B0C94321B0C94321B0C94321B8C
:1000C0000C94321B0C94321B0C94321B0C94321B7C
:1000D0000C94321B0C94321B0C94C92C0C949F2C46
:1000E0000C94321B0C94D91E0C94D8340C94602AB6
:1000F0000C94071F0C942C1D0C94D11E0C94D61B31
:100100000C94031D0C940E1D0C94391D0C94261D8B
:100110000C94712A0C941E1D0C94E8370C942A2F11
:100120000C94FF1C0C94F21E0C943A1D0C942D1F81
:100130000C94341D0C94A9340C942E590C94261C48
:100140000C94E41B0C943C590C944F2A0C948E1C78
:100150000C94C6560C94301D0C94861B0C94822A69
:100160000C94141D0C94221D0C94C21B0C940B1D9A
:100170000C94071D0C94201F0C94131F0C94DB3758
:100180000C943E1D0C94B31B0C94FF1E0C94F91C94
:100190000C94181D0C94E51E4E414E494E4954597D
:1001A000494E46CDCCCC3D0AD7233C17B7D1387742
:1001B000CC2B329595E6241FB14F0A000020410058
:1001C00000C84200401C4620BCBE4CCA1B0E5AAEA2
:1001D000C59D7400002100240027002A002D003056
:1001E00000330001010000040107010A01000022A0
:1001F00000250028002B002E0031003400020100F1
:1002000000050108010B0100002000230026002941
:10021000002C002F0032000001000003010601093C
:100220000105050505070508080808020202020A7B
:100230000A08080404040401010101010101010389
:1002400003030303030303040707070C0C0C0C0C44
:100250000C0C0C0202020206060606060606060B37
:100260000B0B0B0B0B0B0B010210202008081020AE
:100270004010204080020102010804020101020432
:1002800008102040808040201008040201800402F1
:100290000180402010080402010804020101020448
:1002A0000810204080010204081020408000000A4D
:1002B0000B02090C0D0E08070304010000000000EA
:1002C000000000000000000000000000000000002E
:1002D00000000000000000000012111000000000EB
:1002E000000000000000000000000000000000000E
:1002F000000000536F66747761726576657273698A
:100300006F6E20617573676562656E002020202026
:10031000000056455253494F4E2064657220536F7A
:10032000667477617265002020003E3A005645529F
:1003300053494F4E003C0020202020003A00560038
:100340005265747269676765722065696E657320AE
:10035000547269676765722D4B616E616C732073AF
:1003600065747A656E0020202020005265747269E1
:10037000676765722D466C6167202830203D2067D5
:10038000657370657272742C2031203D2066726531
:10039000696765676562656E2C2042657265696391
:1003A000683A20302D3129003E202000696E74000B
:1003B0003C003A2020003200506172616D65746526
:1003C0007220230020202020004B616E616C2D499B
:1003D0006E646578202830203D20312E536368619B
:1003E0006C746B616E616C2C204265726569636828
:1003F0003A20302D3329003E202000696E74003CE5
:10040000003A2020003100506172616D65746572A0
:1004100020230020202020000053657420545269BE
:1004200047657220526574726967676572002020A3
:10043000003E00696E740020203C003E00696E742E
:100440000020203C003E3A005354524752003C00EA
:1004500020202020005365747A656E206465722028
:100460004265747269656273617274206465732099
:1004700054726967676572730020202020005472EF
:1004800069676765726D6F64757320284C4F572CD0
:1004900020484947482C2046414C4C494E472C2087
:1004A000524953494E472C204C4556454C5F444FCA
:1004B000574E2C204C4556454C5F55502C204952E8
:1004C000515F444F574E2C204952515F55502900DF
:1004D0003E202000737472696E67003C003A202051
:1004E000003200506172616D6574657220230020D6
:1004F000202020004B616E616C2D496E6465782070
:100500002830203D20312E536368616C746B616E1E
:10051000616C2C20426572656963683A20302D3326
:1005200029003E202000696E74003C003A20200023
:100530003100506172616D65746572202300202066
:10054000202000005365742054526947676572206B
:100550004D6F6465002020003E00737472696E6701
:100560000020203C003E00696E740020203C003ECC
:100570003A00535452474D003C00202020200053A5
:1005800065747A656E2064657220536368616C746B
:1005900073636877656C6C65207A756D20416B7448
:1005A0006976696572656E20646573205472696747
:1005B0006765727320696D204D6F647573204952B1
:1005C000515F444F574E206F646572204952515F0E
:1005D0005550002020202000547269676765726CB6
:1005E0006576656C2028426572656963683A2030DB
:1005F0002E30302D352E303029003E202000666C04
:100600006F6174003C003A2020003200506172613A
:100610006D6574657220230020202020004B616EE0
:10062000616C2D496E646578202830203D20312E84
:10063000536368616C746B616E616C2C20426572EF
:10064000656963683A20302D3329003E2020006917
:100650006E74003C003A2020003100506172616DE0
:1006600065746572202300202020200000536574EB
:10067000205452726947676572204C6576656C003C
:100680002020003E00666C6F61740020203C003E1C
:1006900000696E740020203C003E3A0053545247DB
:1006A0004C003C0020202020004672656967616292
:1006B000652D5374617475732065696E657320547C
:1006C0007269676765722D4B616E616C732073652B
:1006D000747A656E0020202020004672656967618B
:1006E00062652D466C6167202830203D2067657368
:1006F00070657272742C2031203D206672656967C6
:1007000065676562656E2C20426572656963683A4B
:1007100020302D3129003E202000696E74003C00FD
:100720003A2020003200506172616D65746572205C
:10073000230020202020004B616E616C2D496E64E7
:100740006578202830203D20312E536368616C7419
:100750006B616E616C2C20426572656963683A203A
:10076000302D3329003E202000696E74003C003A91
:100770002020003100506172616D65746572202324
:1007800000202020200000536574205452694765E2
:100790007220456E61626C65002020003E00696E2B
:1007A000740020203C003E00696E740020203C0054
:1007B0003E3A005354524745003C00202020200080
:1007C000547269676765722D466C61672073657442
:1007D0007A656E0020202020005765727420284220
:1007E0006572656963683A20302C3129003E20200B
:1007F00000696E74003C003A2020003200506172A3
:10080000616D6574657220230020202020005472E1
:1008100069676765722D4B616E616C202830203DE1
:1008200020312E547269676765722D4B616E616C61
:100830002C20426572656963683A20302D332900A7
:100840003E202000696E74003C003A2020003100F8
:10085000506172616D657465722023002020202034
:10086000004B616E616C2D496E64657820283020E4
:100870003D20312E536368616C746B616E616C2C2A
:1008800020426572656963683A20302D3729003E41
:10089000202000696E74003C003A20200031005096
:1008A0006172616D65746572202300202020200034
:1008B00000536574205357697463682054726967E4
:1008C00067657220466C6167002020003E00696EFB
:1008D000740020203C003E00696E740020203C0023
:1008E0003E3A005353575446003C0020202020003D
:1008F00054696D696E672065696E6573205363681E
:10090000616C746B616E616C7320667565722064D6
:10091000656E20546F67676C652D2F496D70756C1F
:100920007362657472696562207365747A656E00BE
:1009300020202020005665727A6F65676572756E9B
:1009400067737A65697420286D7329003E20200042
:10095000696E74003C003A202000340050617261DE
:100960006D6574657220230020202020004175737E
:10097000736368616C747A65697420286D732900EB
:100980003E202000696E74003C003A2020003300B5
:10099000506172616D6574657220230020202020F3
:1009A0000045696E736368616C747A6569742028A8
:1009B0006D7329003E202000696E74003C003A20CF
:1009C00020003200506172616D65746572202300F1
:1009D00020202020004B616E616C2D496E6465788B
:1009E000202830203D20312E536368616C746B6188
:1009F0006E616C2C20426572656963683A20302D07
:100A00003729003E202000696E74003C003A202007
:100A1000003100506172616D6574657220230020A1
:100A200020202000005365742053576974636820A8
:100A300054696D696E67002020003E00696E740085
:100A400020203C003E00696E740020203C003E00E7
:100A5000696E740020203C003E00696E7400202006
:100A60003C003E3A0053535754003C0020202020C5
:100A7000004E65676174696F6E732D466C61672007
:100A80007365747A656E00202020200057657274AB
:100A90002028426572656963683A20302C3129004C
:100AA0003E202000696E74003C003A202000320095
:100AB000506172616D6574657220230020202020D2
:100AC000004B616E616C2D496E6465782028302082
:100AD0003D20312E536368616C746B616E616C2CC8
:100AE00020426572656963683A20302D3729003EDF
:100AF000202000696E74003C003A20200031005034
:100B00006172616D657465722023002020202000D1
:100B10000053657420535769746368204E6567619C
:100B200074696F6E20466C6167002020003E00698A
:100B30006E740020203C003E00696E740020203C52
:100B4000003E3A005353574E46003C0020202020E0
:100B5000005365747A656E20646572204265747214
:100B600069656273617274206465732053636861A0
:100B70006C746B616E616C730020202020004265F4
:100B80007472696562736D6F64757320284F464691
:100B90002C204F4E2C20544F47474C452C20494D7C
:100BA00050554C534529003E202000737472696EE5
:100BB00067003C003A2020003200506172616D6590
:100BC00074657220230020202020004B616E616C30
:100BD0002D496E646578202830203D20312E5363E6
:100BE00068616C746B616E616C2C20426572656922
:100BF00063683A20302D3329003E202000696E744E
:100C0000003C003A2020003100506172616D657433
:100C1000657220230020202020000053657420539B
:100C20005769746368204D6F6465002020003E00A2
:100C3000737472696E670020203C003E00696E7418
:100C40000020203C003E3A005353574D003C00200A
:100C500020202000496D6D6564696174652D466CC6
:100C60006167207365747A656E002020202000572C
:100C70006572742028426572656963683A20302C79
:100C80003129003E202000696E74003C003A20208B
:100C9000003200506172616D65746572202300201E
:100CA000202020004B616E616C2D496E64657820B8
:100CB0002830203D20312E536368616C746B616E67
:100CC000616C2C20426572656963683A20302D376B
:100CD00029003E202000696E74003C003A2020006C
:100CE0003100506172616D657465722023002020AF
:100CF00020200000536574205357697463682049AD
:100D00006D6D65646961746520466C6167002020C3
:100D1000003E00696E740020203C003E00696E7445
:100D20000020203C003E3A005353574946003C0007
:100D3000202020200046726569676162652D53742A
:100D4000617475732065696E657320536368616CA7
:100D5000746B616E616C73207365747A656E0020CC
:100D60002020200046726569676162652D466C61CE
:100D700067202830203D2067657370657272742C7F
:100D80002031203D20667265696765676562656E22
:100D90002C20426572656963683A20302D31290044
:100DA0003E202000696E74003C003A202000320092
:100DB000506172616D6574657220230020202020CF
:100DC000004B616E616C2D496E646578202830207F
:100DD0003D20312E536368616C746B616E616C2CC5
:100DE00020426572656963683A20302D3729003EDC
:100DF000202000696E74003C003A20200031005031
:100E00006172616D657465722023002020202000CE
:100E1000005365742053576974636820456E61629E
:100E20006C65002020003E00696E740020203C00AC
:100E30003E00696E740020203C003E3A0053535738
:100E400045003C0020202020004B616E616C2D4B42
:100E50006F6E66696775726174696F6E2061757314
:100E6000676562656E00202020200057657274203F
:100E70002830203D206E696368742067657472694C
:100E80006767657274652042657472696562736133
:100E900072742C2031203D20676574726967676524
:100EA0007274652042657472696562736172742C34
:100EB00020426572656963683A20302C3129003E12
:100EC000202000626F6F6C003C003A20200031321D
:100ED00000506172616D65746572202300202020CE
:100EE0002000547269676765722D4B616E616C20DA
:100EF0002830203D20312E547269676765722D4B72
:100F0000616E616C2C20426572656963683A2030BD
:100F10002D3329003E202000696E74003C003A20E9
:100F20002000313100506172616D6574657220235B
:100F300000202020200057657274202830203D209A
:100F40006E6963687420696E76657274696572741F
:100F5000652042657472696562736172742C203118
:100F6000203D20696E7665727469657274652042F1
:100F7000657472696562736172742C204265726572
:100F80006963683A20302C3129003E202000626FCE
:100F90006F6C003C003A20200031300050617261DB
:100FA0006D65746572202300202020200057657233
:100FB00074202830203D2041757367616265206D83
:100FC000697420646572206EEFBFBD6368737465D9
:100FD0006E204F4E2D466C616E6B652C2031203D8E
:100FE00020756E6D697474656C62617220417573F1
:100FF000676162652C20426572656963683A2030DA
:101000002C3129003E202000626F6F6C003C003ABA
:101010002020003900506172616D65746572202373
:1010200000202020200057657274202830203D20A9
:1010300073796E6368726F6E65204265747269655C
:1010400062736172742C2031203D206173796E636C
:1010500068726F6E65204265747269656273617251
:10106000742C20426572656963683A20302C3129FE
:10107000003E202000626F6F6C003C003A20200090
:101080003800506172616D65746572202300202004
:10109000202000496D70756C7365003E202000694A
:1010A0006E74003C003A2020003700506172616D80
:1010B0006574657220230020202020005665727A16
:1010C0006F65676572756E67737A65697420286DE0
:1010D0007329003E202000696E74003C003A2020F5
:1010E000003600506172616D6574657220230020C6
:1010F00020202000417573736368616C747A6569A0
:101100007420286D7329003E202000696E74003C15
:10111000003A2020003500506172616D657465727F
:10112000202300202020200045696E736368616CD5
:10113000747A65697420286D7329003E2020006947
:101140006E74003C003A2020003400506172616DE2
:10115000657465722023002020202000426574728F
:10116000696562736D6F64757320284F46462C2045
:101170004F4E2C20544F47474C452C20494D50553D
:101180004C534529003E202000737472696E67003D
:101190003C003A2020003300506172616D65746537
:1011A0007220230020202020004B616E616C2D46B0
:1011B00072656967616265202830203D206765732C
:1011C00070657272742C2031203D206672656967EB
:1011D00065676562656E2C20426572656963683A71
:1011E00020302C3129003E202000626F6F6C003CC3
:1011F000003A2020003200506172616D65746572A2
:1012000020230020202020004B616E616C2D496E50
:10121000646578202830203D20312E4E65747A7424
:1012200065696C2D536368616C746B616E616C2CC5
:1012300020426572656963683A20302D3729003E87
:10124000202000696E74003C003A202000310050DC
:101250006172616D6574657220230020202020007A
:101260000053657420506F776572537550706C79B8
:1012700020434F4E46494775726174696F6E002076
:1012800020003E00626F6F6C0020203C003E006931
:101290006E740020203C003E00626F6F6C002020C6
:1012A0003C003E00626F6F6C0020203C003E0062FC
:1012B0006F6F6C0020203C003E00696E740020209F
:1012C0003C003E00696E740020203C003E00696EC8
:1012D000740020203C003E00696E740020203C0019
:1012E0003E00696E740020203C003E00626F6F6C0F
:1012F0000020203C003E00696E740020203C003E2F
:101300003A00535357434F4E464947003C00202074
:10131000202000416E7A61686C2064657220496DFE
:1013200070756C736520696D20496D70756C7362A2
:101330006574726965622065696E657320536368C0
:10134000616C746B616E616C73207365747A656E29
:10135000002020202000496D70756C7365003E20D0
:101360002000696E74003C003A2020003200506179
:1013700072616D6574657220230020202020004B6F
:10138000616E616C2D496E646578202830203D20A7
:10139000312E536368616C746B616E616C2C2042FA
:1013A0006572656963683A20302D3729003E202038
:1013B00000696E74003C003A2020003100506172D8
:1013C000616D657465722023002020202000005389
:1013D00065742053576974636820436F756E746534
:1013E00072002020003E00696E740020203C003E08
:1013F00000696E740020203C003E3A00535357436E
:10140000003C0020202020004173796E6368726FD9
:101410006E2D466C6167207365747A656E002020BE
:1014200020200057657274202842657265696368E0
:101430003A20302C3129003E202000696E74003C97
:10144000003A2020003200506172616D657465724F
:1014500020230020202020004B616E616C2D496EFE
:10146000646578202830203D20312E536368616CFC
:10147000746B616E616C2C20426572656963683AB9
:1014800020302D3729003E202000696E74003C007A
:101490003A2020003100506172616D6574657220E0
:1014A00023002020202000005365742053576974C6
:1014B0006368204173796E6368726F6E6F75732015
:1014C000466C6167002020003E00696E7400202099
:1014D0003C003E00696E740020203C003E3A005300
:1014E00053574146003C0020202020005472696779
:1014F0006765722D466C6167207365747A656E004E
:10150000202020200057657274202842657265698A
:1015100063683A20302C3129003E202000696E7427
:10152000003C003A2020003200506172616D657409
:1015300065722023002020202000547269676765AF
:10154000722D4B616E616C202830203D20312E546D
:101550007269676765722D4B616E616C2C20426504
:1015600072656963683A20302D3329003E202000DF
:10157000696E74003C003A202000310050617261B5
:101580006D6574657220230020202020004B616E61
:10159000616C2D496E646578202830203D20312E05
:1015A0004E65747A7465696C2D536368616C746BF5
:1015B000616E616C2C20426572656963683A203007
:1015C0002D3729003E202000696E74003C003A202F
:1015D00020003100506172616D65746572202300D6
:1015E00020202020000053657420506F77657253CF
:1015F0007550706C79205472696767657220466C0B
:101600006167002020003E00696E740020203C00CD
:101610003E00696E740020203C003E3A0053505357
:10162000505446003C00202020200054696D696E13
:10163000672065696E6573204E65747A7465696CA0
:101640002D536368616C746B616E616C7320667599
:1016500065722064656E20546F67676C652D2F4935
:101660006D70756C73626574726965622073657400
:101670007A656E0020202020005665727A6F6567BB
:101680006572756E67737A65697420286D732900B9
:101690003E202000696E74003C003A202000340097
:1016A000506172616D6574657220230020202020D6
:1016B00000417573736368616C747A65697420287E
:1016C0006D7329003E202000696E74003C003A20B2
:1016D00020003300506172616D65746572202300D3
:1016E000202020200045696E736368616C747A6500
:1016F000697420286D7329003E202000696E7400F3
:101700003C003A2020003200506172616D657465C2
:101710007220230020202020004B616E616C2D4937
:101720006E646578202830203D20312E4E65747A15
:101730007465696C2D536368616C746B616E616C68
:101740002C20426572656963683A20302D37290084
:101750003E202000696E74003C003A2020003100D9
:10176000506172616D657465722023002020202015
:10177000000053657420506F776572537550706C1C
:10178000792054696D696E67002020003E00696E03
:10179000740020203C003E00696E740020203C0054
:1017A0003E00696E740020203C003E00696E7400AB
:1017B00020203C003E3A005350535054003C00203F
:1017C000202020004E65676174696F6E732D466C32
:1017D0006167207365747A656E00202020200057B1
:1017E0006572742028426572656963683A20302CFE
:1017F0003129003E202000696E74003C003A202010
:10180000003200506172616D6574657220230020A2
:10181000202020004B616E616C2D496E646578203C
:101820002830203D20312E4E65747A7465696C2D08
:10183000536368616C746B616E616C2C20426572DD
:10184000656963683A20302D3729003E2020006901
:101850006E74003C003A2020003100506172616DCE
:1018600065746572202300202020200000536574D9
:1018700020506F776572537550706C79204E656794
:101880006174696F6E20466C6167002020003E0025
:10189000696E740020203C003E00696E74002020B8
:1018A0003C003E3A00535053504E46003C0020202E
:1018B0002020005365747A656E206465722042654D
:1018C00074726965627361727420646573204E6519
:1018D000747A7465696C2D536368616C746B616EA6
:1018E000616C73002020202000426574726965627B
:1018F000736D6F64757320284F46462C204F4E2C15
:1019000020544F47474C452C20494D50554C53458A
:1019100029003E202000737472696E67003C003A13
:101920002020003200506172616D65746572202361
:101930000020202020004B616E616C2D496E646593
:1019400078202830203D20312E4E65747A746569E8
:101950006C2D536368616C746B616E616C2C2042FA
:101960006572656963683A20302D3329003E202076
:1019700000696E74003C003A202000310050617212
:10198000616D6574657220230020202020000053C3
:10199000657420506F776572537550706C79204D67
:1019A0006F6465002020003E00737472696E6700EA
:1019B00020203C003E00696E740020203C003E3A2E
:1019C00000535053504D003C002020202000496D12
:1019D0006D6564696174652D466C6167207365741B
:1019E0007A656E00202020200057657274202842FE
:1019F0006572656963683A20302C3129003E2020E9
:101A000000696E74003C003A202000320050617280
:101A1000616D6574657220230020202020004B61D9
:101A20006E616C2D496E646578202830203D203130
:101A30002E4E65747A7465696C2D536368616C749D
:101A40006B616E616C2C20426572656963683A2037
:101A5000302D3729003E202000696E74003C003A8A
:101A60002020003100506172616D65746572202321
:101A70000020202020000053657420506F7765728D
:101A8000537550706C7920496D6D6564696174653A
:101A900020466C6167002020003E00696E740020C3
:101AA000203C003E00696E740020203C003E3A005D
:101AB000535053504946003C0020202020004672DD
:101AC0006569676162652D5374617475732065691A
:101AD0006E6573204E65747A7465696C2D53636806
:101AE000616C746B616E616C73207365747A656E82
:101AF00000202020200046726569676162652D46DE
:101B00006C6167202830203D2067657370657272B4
:101B1000742C2031203D20667265696765676562B7
:101B2000656E2C20426572656963683A20302D31FC
:101B300029003E202000696E74003C003A202000FD
:101B40003200506172616D6574657220230020203F
:101B50002020004B616E616C2D496E6465782028F1
:101B600030203D20312E4E65747A7465696C2D539A
:101B70006368616C746B616E616C2C204265726588
:101B80006963683A20302D3729003E202000696EB5
:101B900074003C003A2020003100506172616D6594
:101BA00074657220230020202020000053657420DB
:101BB000506F776572537550706C7920456E616215
:101BC0006C65002020003E00696E740020203C00FF
:101BD0003E00696E740020203C003E3A0053505392
:101BE0005045003C0020202020004B616E616C2D90
:101BF0004B6F6E66696775726174696F6E2061758F
:101C000073676562656E002020202000576572743E
:101C1000202830203D206E696368742067657472E7
:101C2000696767657274652042657472696562737D
:101C30006172742C2031203D20676574726967677A
:101C4000657274652042657472696562736172744D
:101C50002C20426572656963683A20302C31290076
:101C60003E202000626F6F6C003C003A2020003163
:101C70003200506172616D6574657220230020200E
:101C8000202000547269676765722D4B616E616C2C
:101C9000202830203D20312E547269676765722DEF
:101CA0004B616E616C2C20426572656963683A20F5
:101CB000302D3329003E202000696E74003C003A2C
:101CC000202000313100506172616D6574657220B1
:101CD0002300202020200057657274202830203DEA
:101CE000206E6963687420696E76657274696572C6
:101CF00074652042657472696562736172742C2028
:101D000031203D20696E7665727469657274652054
:101D100042657472696562736172742C20426572E7
:101D2000656963683A20302C3129003E202000622A
:101D30006F6F6C003C003A2020003130005061721F
:101D4000616D657465722023002020202000576596
:101D50007274202830203D204175736761626520D0
:101D60006D697420646572206EEFBFBD6368737423
:101D7000656E204F4E2D466C616E6B652C203120B8
:101D80003D20756E6D697474656C62617220417579
:101D900073676162652C20426572656963683A20E9
:101DA000302C3129003E202000626F6F6C003C0017
:101DB0003A2020003900506172616D6574657220AF
:101DC0002300202020200057657274202830203DF9
:101DD0002073796E6368726F6E65204265747269F4
:101DE0006562736172742C2031203D206173796EBD
:101DF0006368726F6E6520426574726965627361B3
:101E000072742C20426572656963683A20302C3107
:101E100029003E202000626F6F6C003C003A2020B9
:101E2000003800506172616D657465722023002076
:101E300020202000496D70756C7365003E202000E5
:101E4000696E74003C003A202000370050617261D6
:101E50006D65746572202300202020200056657275
:101E60007A6F65676572756E67737A656974202825
:101E70006D7329003E202000696E74003C003A20FA
:101E800020003600506172616D6574657220230018
:101E90002020202000417573736368616C747A653B
:101EA000697420286D7329003E202000696E74003B
:101EB0003C003A2020003500506172616D65746508
:101EC00072202300202020200045696E7363686122
:101ED0006C747A65697420286D7329003E20200097
:101EE000696E74003C003A20200034005061726139
:101EF0006D657465722023002020202000426574E7
:101F000072696562736D6F64757320284F46462C45
:101F1000204F4E2C20544F47474C452C20494D50C4
:101F2000554C534529003E202000737472696E673A
:101F3000003C003A2020003300506172616D6574EE
:101F4000657220230020202020004B616E616C2DE3
:101F50004672656967616265202830203D206765AB
:101F60007370657272742C2031203D206672656931
:101F70006765676562656E2C204265726569636896
:101F80003A20302C3129003E202000626F6F6C0017
:101F90003C003A2020003200506172616D6574652A
:101FA0007220230020202020004B616E616C2D499F
:101FB0006E646578202830203D20312E4E65747A7D
:101FC0007465696C2D536368616C746B616E616CD0
:101FD0002C20426572656963683A20302D372900EC
:101FE0003E202000696E74003C003A202000310041
:101FF000506172616D65746572202300202020207D
:10200000000053657420506F776572537550706C83
:102010007920434F4E46494775726174696F6E006F
:102020002020003E00626F6F6C0020203C003E00CC
:10203000696E740020203C003E00626F6F6C0020CF
:10204000203C003E00626F6F6C0020203C003E0090
:10205000626F6F6C0020203C003E00696E740020AF
:10206000203C003E00696E740020203C003E006968
:102070006E740020203C003E00696E740020203CFD
:10208000003E00696E740020203C003E00626F6FCD
:102090006C0020203C003E00696E740020203C0053
:1020A0003E3A0053505350434F4E464947003C0080
:1020B0002020202000416E7A61686C2064657220C7
:1020C000496D70756C736520696D20496D70756C14
:1020D00073626574726965622065696E6573204E0E
:1020E00065747A7465696C2D536368616C746B6197
:1020F0006E616C73207365747A656E0020202020F9
:1021000000496D70756C7365003E202000696E7427
:10211000003C003A2020003200506172616D65740D
:10212000657220230020202020004B616E616C2D01
:10213000496E646578202830203D20312E4E65742C
:102140007A7465696C2D536368616C746B616E6140
:102150006C2C20426572656963683A20302D3729FE
:10216000003E202000696E74003C003A20200031BF
:1021700000506172616D657465722023002020201B
:1021800020000053657420506F776572537550704E
:102190006C7920436F756E746572002020003E00DC
:1021A000696E740020203C003E00696E740020209F
:1021B0003C003E3A005350535043003C0020202046
:1021C00020004173796E6368726F6E2D466C616793
:1021D000207365747A656E00202020200057657298
:1021E000742028426572656963683A20302C312971
:1021F000003E202000696E74003C003A202000322E
:1022000000506172616D657465722023002020208A
:1022100020004B616E616C2D496E6465782028301A
:10222000203D20312E4E65747A7465696C2D5363A0
:1022300068616C746B616E616C2C204265726569BB
:1022400063683A20302D3729003E202000696E74E3
:10225000003C003A2020003100506172616D6574CD
:102260006572202300202020200000536574205038
:102270006F776572537550706C79204173796E6316
:1022800068726F6E6F757320466C61670020200066
:102290003E00696E740020203C003E00696E7400B0
:1022A00020203C003E3A00535053504146003C0031
:1022B00020202020004B6F6E66696775726174691B
:1022C0006F6E73706172616D657465722073657491
:1022D0007A656E00202020200057657274003E2031
:1022E0002000696E74003C003A20200032005061EA
:1022F00072616D65746572202300202020200041EA
:102300006E6761626520EFBFBD6265722064656EB5
:10231000207A75207365747A656E64656E204B6FE4
:102320006E66696775726174696F6E7370617261F0
:102330006D657465722028454E41424C4529003E2A
:10234000202000696E74003C003A202000310050CB
:102350006172616D65746572202300202020200069
:102360000053657420436F6E466947002020003E8D
:1023700000696E740020203C003E00696E740020ED
:10238000203C003E3A0053434647003C00202020BA
:1023900020003A005300506172616D6574657220CF
:1023A0006465722065696E7A656C6E656E204B613E
:1023B0006E61656C6520696E20546162656C6C6548
:1023C0006E666F726D20617573676562656E002061
:1023D0002020200000494E464F206F7574707574A0
:1023E000002020003E3A00494E464F003C0020208D
:1023F0002020003A00490048696C666520617573C9
:10240000676562656E0020202020000048454C5022
:102410002073797374656D002020003E3A004845B2
:102420004C50003C0020202020003A00480052651B
:10243000747269676765722D537461747573206572
:10244000696E657320547269676765722D4B616EA2
:10245000616C7320617573676562656E0020202072
:1024600020004B616E616C2D496E646578202830C8
:10247000203D20312E536368616C746B616E616C1A
:102480002C20426572656963683A20302D3329003B
:102490003E202000696E74003C003A20200031008C
:1024A000506172616D6574657220230020202020C8
:1024B0000000476574205452694765722052657464
:1024C000726967676572002020003E00696E7400C3
:1024D00020203C003E3A004754524752003C002026
:1024E00020202000547269676765722D4D6F6475F6
:1024F000732065696E657320547269676765722D14
:102500004B616E616C7320617573676562656E0007
:1025100020202020004B616E616C2D496E6465782F
:10252000202830203D20312E536368616C746B612C
:102530006E616C2C20426572656963683A20302DAB
:102540003329003E202000696E74003C003A2020B0
:10255000003100506172616D657465722023002046
:10256000202020000047657420545269476572207E
:102570004D6F6465002020003E00696E74002020CD
:102580003C003E3A00475452474D003C002020207A
:102590002000547269676765722D53636877656CB4
:1025A0006C652065696E6573205472696767657232
:1025B0002D4B616E616C7320617573676562656E2A
:1025C0000020202020004B616E616C2D496E6465F7
:1025D00078202830203D20312E536368616C746B65
:1025E000616E616C2C20426572656963683A2030C7
:1025F0002D3329003E202000696E74003C003A20F3
:1026000020003100506172616D6574657220230095
:1026100020202020000047657420545269476572CD
:10262000204C6576656C002020003E00696E7400C9
:1026300020203C003E3A00475452474C003C0020CA
:102640002020200046726569676162652D537461C0
:102650007475732065696E65732054726967676568
:10266000722D4B616E616C73206175736765626575
:102670006E0020202020004B616E616C2D496E643D
:102680006578202830203D20312E536368616C74BA
:102690006B616E616C2C20426572656963683A20DB
:1026A000302D3329003E202000696E74003C003A32
:1026B0002020003100506172616D657465722023C5
:1026C000002020202000004765742054526947658F
:1026D0007220456E61626C65002020003E00696ECC
:1026E000740020203C003E3A004754524745003CCD
:1026F000002020202000547269676765722D466CA7
:10270000616720617573676562656E002020202017
:10271000004B616E616C2D496E6465782028302015
:102720003D20312E536368616C746B616E616C2C5B
:1027300020426572656963683A20302D3729003E72
:10274000202000696E74003C003A202000310050C7
:102750006172616D65746572202300202020200065
:102760000047657420535769746368205472696721
:1027700067657220466C6167002020003E00696E2C
:10278000740020203C003E3A004753575446003C1A
:1027900000202020200054696D696E672065696EF5
:1027A000657320536368616C746B616E616C732038
:1027B000667565722064656E20546F67676C652D61
:1027C0002F496D70756C7362657472696562206102
:1027D0007573676562656E0020202020004B616E76
:1027E000616C2D496E646578202830203D20312EA3
:1027F000536368616C746B616E616C2C204265720E
:10280000656963683A20302D3729003E2020006931
:102810006E74003C003A2020003100506172616DFE
:102820006574657220230020202020000047657415
:10283000205357697463682054696D696E6700207E
:1028400020003E00696E740020203C003E3A0047A4
:10285000535754003C0020202020004E65676174CF
:10286000696F6E732D466C61672061757367656271
:10287000656E0020202020004B616E616C2D496E3A
:10288000646578202830203D20312E536368616CC8
:10289000746B616E616C2C20426572656963683A85
:1028A00020302D3729003E202000696E74003C0046
:1028B0003A2020003100506172616D6574657220AC
:1028C000230020202020000047657420535769749E
:1028D0006368204E65676174696F6E20466C61673E
:1028E000002020003E00696E740020203C003E3A2B
:1028F000004753574E46003C0020202020004265F0
:1029000074726965627361727420646573205363C5
:1029100068616C746B616E616C732061757367655F
:1029200062656E0020202020004B616E616C2D4995
:102930006E646578202830203D20312E5363686115
:102940006C746B616E616C2C2042657265696368A2
:102950003A20302D3329003E202000696E74003C5F
:10296000003A2020003100506172616D657465721B
:102970002023002020202000004765742053576941
:10298000746368204D6F6465002020003E00696E0E
:10299000740020203C003E3A004753574D003C0055
:1029A0002020202000496D6D6564696174652D46A5
:1029B0006C616720617573676562656E0020202019
:1029C00020004B616E616C2D496E64657820283063
:1029D000203D20312E536368616C746B616E616CB5
:1029E0002C20426572656963683A20302D372900D2
:1029F0003E202000696E74003C003A202000310027
:102A0000506172616D657465722023002020202062
:102A100000004765742053576974636820496D6DE1
:102A200065646961746520466C6167002020003E22
:102A300000696E740020203C003E3A00475357491D
:102A400046003C00202020200046726569676162D4
:102A5000652D5374617475732065696E65732053B9
:102A60006368616C746B616E616C73206175736710
:102A70006562656E0020202020004B616E616C2D28
:102A8000496E646578202830203D20312E536368DC
:102A9000616C746B616E616C2C2042657265696358
:102AA000683A20302D3729003E202000696E7400DE
:102AB0003C003A2020003100506172616D65746500
:102AC00072202300202020200000476574205357E7
:102AD0006974636820456E61626C65002020003E69
:102AE00000696E740020203C003E3A004753574571
:102AF000003C0020202020004B616E616C2D4B6F4C
:102B00006E66696775726174696F6E20617573674F
:102B10006562656E0020202020004B616E616C2D87
:102B2000496E646578202830203D20312E5363683B
:102B3000616C746B616E616C2C20426572656963B7
:102B4000683A20302D3729003E202000696E74003D
:102B50003C003A2020003100506172616D6574655F
:102B60007220230020202020000047657420535746
:102B70006974636820434F4E4649477572617469B2
:102B80006F6E002020003E00696E740020203C0023
:102B90003E3A00475357434F4E464947003C0020BA
:102BA00020202000566572626C656962656E6465FE
:102BB00020496D70756C736520696D20496D707565
:102BC0006C736265747269656220617573676562B2
:102BD000656E0020202020004B616E616C2D496ED7
:102BE000646578202830203D20312E536368616C65
:102BF000746B616E616C2C20426572656963683A22
:102C000020302D3729003E202000696E74003C00E2
:102C10003A2020003100506172616D657465722048
:102C2000230020202020000047657420535769743A
:102C3000636820436F756E74732041637475616CB3
:102C4000002020003E00696E740020203C003E3AC7
:102C5000004753574341003C002020202000496D8D
:102C600070756C736520696D20496D70756C736249
:102C700065747269656220617573676562656E006F
:102C800020202020004B616E616C2D496E646578B8
:102C9000202830203D20312E536368616C746B61B5
:102CA0006E616C2C20426572656963683A20302D34
:102CB0003729003E202000696E74003C003A202035
:102CC000003100506172616D6574657220230020CF
:102CD00020202000004765742053576974636820E2
:102CE000436F756E7473002020003E00696E74009F
:102CF00020203C003E3A0047535743003C00202030
:102D00002020004173796E6368726F6E2D466C618E
:102D10006720617573676562656E00202020200062
:102D20004B616E616C2D496E646578202830203DC2
:102D300020312E536368616C746B616E616C2C2062
:102D4000426572656963683A20302D3729003E205C
:102D50002000696E74003C003A2020003100506170
:102D600072616D65746572202300202020200000B0
:102D700047657420535769746368204173796E63A3
:102D800068726F6E6F757320466C6167002020005B
:102D90003E00696E740020203C003E3A00475357C5
:102DA0004146003C0020202020005472696767657E
:102DB000722D466C616720617573676562656E0090
:102DC00020202020004B616E616C2D496E64657877
:102DD000202830203D20312E4E65747A7465696C50
:102DE0002D536368616C746B616E616C2C2042655D
:102DF00072656963683A20302D3729003E20200033
:102E0000696E74003C003A2020003100506172610C
:102E10006D65746572202300202020200000476526
:102E20007420506F776572537550706C79205472AE
:102E3000696767657220466C6167002020003E006C
:102E4000696E740020203C003E3A004750535054B5
:102E500046003C00202020200054696D696E6720E8
:102E600065696E6573204E65747A7465696C2D535F
:102E70006368616C746B616E616C732066756572FA
:102E80002064656E20546F67676C652D2F496D70E7
:102E9000756C7362657472696562206175736765CC
:102EA00062656E0020202020004B616E616C2D4910
:102EB0006E646578202830203D20312E4E65747A6E
:102EC0007465696C2D536368616C746B616E616CC1
:102ED0002C20426572656963683A20302D372900DD
:102EE0003E202000696E74003C003A202000310032
:102EF000506172616D65746572202300202020206E
:102F0000000047657420506F776572537550706C80
:102F1000792054696D696E67002020003E00696E5B
:102F2000740020203C003E3A004750535054003C6F
:102F30000020202020004E65676174696F6E732D3C
:102F4000466C616720617573676562656E0020205D
:102F50002020004B616E616C2D496E6465782028DD
:102F600030203D20312E4E65747A7465696C2D5386
:102F70006368616C746B616E616C2C204265726574
:102F80006963683A20302D3729003E202000696EA1
:102F900074003C003A2020003100506172616D6580
:102FA00074657220230020202020000047657420D3
:102FB000506F776572537550706C79204E656761FC
:102FC00074696F6E20466C6167002020003E0069C6
:102FD0006E740020203C003E3A00475053504E464D
:102FE000003C0020202020004265747269656273F5
:102FF00061727420646573204E65747A7465696CBF
:103000002D536368616C746B616E616C73206175C4
:1030100073676562656E0020202020004B616E6141
:103020006C2D496E646578202830203D20312E4E6D
:1030300065747A7465696C2D536368616C746B6137
:103040006E616C2C20426572656963683A20302D90
:103050003329003E202000696E74003C003A202095
:10306000003100506172616D65746572202300202B
:10307000202020000047657420506F7765725375DB
:1030800050706C79204D6F6465002020003E00690F
:103090006E740020203C003E3A00475053504D00D3
:1030A0003C002020202000496D6D656469617465D5
:1030B0002D466C616720617573676562656E0020DF
:1030C000202020004B616E616C2D496E6465782074
:1030D0002830203D20312E4E65747A7465696C2D40
:1030E000536368616C746B616E616C2C2042657215
:1030F000656963683A20302D3729003E2020006939
:103100006E74003C003A2020003100506172616D05
:10311000657465722023002020202000004765741C
:1031200020506F776572537550706C7920496D6DC2
:1031300065646961746520466C6167002020003E0B
:1031400000696E740020203C003E3A004750535006
:103150004946003C002020202000467265696761D6
:1031600062652D5374617475732065696E65732093
:103170004E65747A7465696C2D536368616C746B09
:10318000616E616C7320617573676562656E0020A6
:10319000202020004B616E616C2D496E64657820A3
:1031A0002830203D20312E4E65747A7465696C2D6F
:1031B000536368616C746B616E616C2C2042657244
:1031C000656963683A20302D3729003E2020006968
:1031D0006E74003C003A2020003100506172616D35
:1031E000657465722023002020202000004765744C
:1031F00020506F776572537550706C7920456E6101
:10320000626C65002020003E00696E740020203C46
:10321000003E3A004750535045003C0020202020FB
:10322000004B616E616C2D4B6F6E666967757261E4
:1032300074696F6E20617573676562656E0020202A
:103240002020004B616E616C2D496E6465782028EA
:1032500030203D20312E4E65747A7465696C2D5393
:103260006368616C746B616E616C2C204265726581
:103270006963683A20302D3729003E202000696EAE
:1032800074003C003A2020003100506172616D658D
:1032900074657220230020202020000047657420E0
:1032A000506F776572537550706C7920434F4E465E
:1032B000494775726174696F6E002020003E006995
:1032C0006E740020203C003E3A0047505350434F5C
:1032D0004E464947003C002020202000566572627F
:1032E0006C656962656E646520496D70756C7365A7
:1032F00020696D20496D70756C73626574726965C3
:103300006220617573676562656E00202020200071
:103310004B616E616C2D496E646578202830203DCC
:1033200020312E4E65747A7465696C2D5363686123
:103330006C746B616E616C2C2042657265696368A8
:103340003A20302D3729003E202000696E74003C61
:10335000003A2020003100506172616D6574657221
:1033600020230020202020000047657420506F7724
:103370006572537550706C7920436F756E7473204D
:1033800041637475616C002020003E00696E74001A
:1033900020203C003E3A00475053504341003C003F
:1033A0002020202000496D70756C736520696D20A8
:1033B000496D70756C7362657472696562206175C0
:1033C00073676562656E0020202020004B616E618E
:1033D0006C2D496E646578202830203D20312E4EBA
:1033E00065747A7465696C2D536368616C746B6184
:1033F0006E616C2C20426572656963683A20302DDD
:103400003729003E202000696E74003C003A2020DD
:10341000003100506172616D657465722023002077
:10342000202020000047657420506F776572537527
:1034300050706C7920436F756E7473002020003ECD
:1034400000696E740020203C003E3A004750535003
:1034500043003C0020202020004173796E63687295
:103460006F6E2D466C616720617573676562656E6E
:103470000020202020004B616E616C2D496E646538
:1034800078202830203D20312E4E65747A7465698D
:103490006C2D536368616C746B616E616C2C20429F
:1034A0006572656963683A20302D3729003E202017
:1034B00000696E74003C003A2020003100506172B7
:1034C000616D657465722023002020202000004774
:1034D000657420506F776572537550706C79204118
:1034E00073796E6368726F6E6F757320466C616777
:1034F000002020003E00696E740020203C003E3A0F
:1035000000475053504146003C0020202020004BF3
:103510006F6E66696775726174696F6E73706172E0
:10352000616D6574657220617573676562656E00B3
:10353000202020200057657274003E202000696E14
:1035400074003C003A2020003200506172616D65C9
:103550007465722023002020202000416E67616284
:103560006520EFBFBD6265722064656E2061757372
:103570007A75676562656E64656E204B6F6E66690D
:103580006775726174696F6E73706172616D657475
:1035900065722028454E41424C4529003E202000BE
:1035A000696E74003C003A20200031005061726165
:1035B0006D6574657220230020202020000047657F
:1035C0007420436F6E466947002020003E00696EFC
:1035D000740020203C003E00696E740020203C00F6
:1035E0003E3A0047434647003C0020202020003A56
:1035F0000047003A0045003A0044003A004300000A
:103600002A2F11241FBECFEFD1E2DEBFCDBF00E0D5
:103610000CBF21E1A8E9B4E001C01D92A232B207BB
:10362000E1F714E0A0E0B2E0ECE2F4EC00E00BBF64
:1036300002C007900D92A839B107D9F71BE1C1E08C
:10364000DBE100E006C021970109802FFE010E9406
:103650000C5FC030D10780E00807A9F70E94962FC1
:103660000C9414620C940000FC01A089B18982E0E2
:103670008C93A485B5851C92A685B78580E18C9333
:10368000108EA489B58986E08C93A289B3898C9128
:1036900080618C93A289B3898C9188608C93A28974
:1036A000B3898C9180688C930288F389E02D8081A6
:1036B0008F7D80830895843021F190E0DC01A45B4C
:1036C000B74FD8962C91D897222371F0FC01EE0FBA
:1036D000FF1FE459F74F20813181265031092230F4
:1036E000310530F014961C9260E070E0CB01089533
:1036F000FC01EF5BF74F1082835C974FFC01108257
:10370000F3CF61E070E080E090E00895AF92BF9267
:10371000CF92DF92EF92FF920F931F93CF93DF939D
:103720006C017B018B01040F151FEB015E01AE18CC
:10373000BF08C017D10759F06991D601ED91FC91EE
:103740000190F081E02DC6011995892B79F7C5010B
:10375000DF91CF911F910F91FF90EF90DF90CF906D
:10376000BF90AF900895FC01538D448D252F30E01C
:10377000842F90E0821B930B541710F0CF9608957E
:1037800001970895FC01918D828D981761F0A28DAB
:10379000AE0FBF2FB11D5D968C91928D9F5F9F7371
:1037A000928F90E008958FEF9FEF0895FC01918D27
:1037B000828D981731F0828DE80FF11D858D90E094
:1037C00008958FEF9FEF0895FC01918D228D892F31
:1037D00090E0805C9F4F821B91098F739927089519
:1037E00088E898E00E94E41B21E0892B09F420E09E
:1037F000822F089585E299E00E94E41B21E0892B45
:1038000009F420E0822F0895FC01A48DA80FB92FA0
:10381000B11DA35ABF4F2C91848D90E001968F73F8
:103820009927848FA689B7892C93A089B1898C9117
:10383000837080648C93938D848D981306C0028866
:10384000F389E02D80818F7D80830895EF92FF9230
:103850000F931F93CF93DF93EC0181E0888F9B8DB3
:103860008C8D98131AC0E889F989808185FF15C06D
:103870009FB7F894EE89FF896083E889F989808190
:103880008370806480839FBF81E090E0DF91CF915F
:103890001F910F91FF90EF900895F62E0B8D10E081
:1038A0000F5F1F4F0F731127E02E8C8D8E110CC0F0
:1038B0000FB607FCFACFE889F989808185FFF5CF3B
:1038C000CE010E94041CF1CFEB8DEC0FFD2FF11DFA
:1038D000E35AFF4FF0829FB7F8940B8FEA89FB8978
:1038E00080818062CFCF0F931F93CF93DF938C01A2
:1038F000D0E0C0E0F801EC0FFD1F6491662341F0B9
:1039000088E898E00E94261C892B11F02196F2CFBE
:10391000CE01DF91CF911F910F910895CF93DF9347
:10392000EC01888D8823B9F0AA89BB89E889F989D7
:103930008C9185FD03C0808186FD0DC00FB607FC0C
:10394000F7CF8C9185FFF2CF808185FFEDCFCE013F
:103950000E94041CE9CFDF91CF91089580E090E0B0
:10396000892B29F00E94FA1B81110E94000080E03F
:1039700090E0892B49F080E090E0892B29F00E94AB
:10398000000081110E94000080E090E0892B49F046
:1039900080E090E0892B29F00E94000081110E94B4
:1039A000000080E090E0892B29F00E94F01B81113B
:1039B0000C94000008958150823108F05AC0E82F1D
:1039C000F0E08827E951F34E8F4F0C940C5F071DF0
:1039D0000B1DF91CFF1C031D391D0E1D141D181D88
:1039E0001E1D221D261D2C1D301D391D341D3A1D86
:1039F0003E1D809180008F77809380000895809194
:103A000080008F7DF9CF80918000877FF5CF84B5CE
:103A10008F7784BD089584B58F7DFBCF8091B000F2
:103A20008F778093B00008958091B0008F7DF9CF9B
:103A3000809190008F7780939000089580919000FE
:103A40008F7DF9CF80919000877FF5CF8091A00086
:103A50008F778093A00008958091A0008F7DF9CF8B
:103A60008091A000877FF5CF809120018F77809390
:103A700020010895809120018F7DF9CF8091200150
:103A8000877FF5CFCF93DF93282F30E0F901E355FF
:103A9000FD4F8491F901E959FD4FD491F901EF5D92
:103AA000FD4FC491CC23A1F081110E94DB1CEC2FAF
:103AB000F0E0EE0FFF1FE95FFD4FA591B491EC918F
:103AC000ED2381E090E009F480E0DF91CF9108954B
:103AD00080E090E0FACF1F93CF93DF93282F30E060
:103AE000F901E355FD4F8491F901E959FD4FD49156
:103AF000F901EF5DFD4FC491CC23A9F0162F811180
:103B00000E94DB1CEC2FF0E0EE0FFF1FE351FE4F95
:103B1000A591B4918FB7F894EC91111108C0D0958C
:103B2000DE23DC938FBFDF91CF911F910895DE2BB1
:103B3000F8CFCF93DF9390E0FC01E959FD4F24913A
:103B40008F5D9D4FFC0184918823D1F090E0880F18
:103B5000991FFC01ED52FE4FA591B491FC01E35178
:103B6000FE4FC591D49161110EC09FB7F8948C910E
:103B7000E22FE0958E238C932881E223E8839FBF78
:103B8000DF91CF9108958FB7F894EC91E22BEC93ED
:103B90008FBFF6CF863308F0865320917B00982F95
:103BA0009870277F922B90937B002091100290E4D5
:103BB000299F900111248770822B80937C00809133
:103BC0007A00806480937A0080917A0086FDFCCF31
:103BD000809178009091790008953FB7F894809192
:103BE0009D0490919E04A0919F04B091A00426B5DD
:103BF000A89B05C02F3F19F00196A11DB11D3FBF25
:103C0000BA2FA92F982F8827BC01CD01620F711DF3
:103C1000811D911D42E0660F771F881F991F4A95ED
:103C2000D1F708958F929F92AF92BF92CF92DF9279
:103C3000EF92FF924B015C010E94ED1D6B017C0134
:103C40000E94ED1D6C197D098E099F09683E734025
:103C500081059105A8F321E0821A9108A108B10815
:103C600088EEC80E83E0D81EE11CF11C811491047B
:103C7000A104B10429F7FF90EF90DF90CF90BF909F
:103C8000AF909F908F9008952FB7F894609199040A
:103C900070919A0480919B0490919C042FBF089589
:103CA0008F929F92AF92BF92CF92DF92EF92FF924C
:103CB0006B017C010E94441E4B015C01C80CD91CA5
:103CC000EA1CFB1C0E94441E681579058A059B05A9
:103CD00028F0C616D706E806F906A0F7FF90EF9081
:103CE000DF90CF90BF90AF909F908F9008950C94ED
:103CF000501ECF92DF92EF92FF920F931F9381118C
:103D000023C00E94441E0091C4091091C50920914E
:103D1000C6093091C709DC01CB01801B910BA20BB6
:103D2000B30B81329105A105B10570F401E210E0F9
:103D300020E030E068017901C81AD90AEA0AFB0AD2
:103D4000C701B6010E94501E0E94441E6093C40920
:103D50007093C5098093C6099093C70981E01F91AC
:103D60000F91FF90EF90DF90CF900895E82FF0E053
:103D7000DF01AA0FBB1FA050BE4F11967C936E931C
:103D8000883008F069C08827E753F14E8F4F0C94B4
:103D90000C5FFF1E071FD11ED91EE51EF21E131F4A
:103DA000201F809169008C7F482B40936900E89A1E
:103DB000089580916900837F440F551F440F551F5C
:103DC000482B40936900E99A0895809169008F7C9F
:103DD00074E0440F551F7A95E1F7482B4093690032
:103DE000EA9A0895809169008F7366E0440F551F29
:103DF0006A95E1F7482B40936900EB9A089580910A
:103E00006A008C7F482B40936A00EC9A0895809159
:103E10006A00837F440F551F440F551F482B409362
:103E20006A00ED9A089580916A008F7C24E0440F27
:103E3000551F2A95E1F7482B40936A00EE9A0895A2
:103E400080916A008F7396E0440F551F9A95E1F7B1
:103E5000482B40936A00EF9A08950895CF93DF931B
:103E6000EC0168A581E068278E850E946B1D81E0CA
:103E700090E0998388838E819F81A885B985488D3C
:103E8000598D6A8D7B8D840F951FA61FB71F8E835A
:103E90009F83A887B987DF91CF9108954F925F9252
:103EA0006F927F928F929F92AF92BF92CF92DF924A
:103EB000EF92FF920F931F93CF93DF9300D000D028
:103EC000CDB7DEB79E838D83FC01E259FF4F0081A1
:103ED0001181D8016D917D918D919C91ED81FE8133
:103EE0002689378922303105D8F466837783808725
:103EF000918726960FB6F894DEBF0FBECDBFDF9137
:103F0000CF911F910F91FF90EF90DF90CF90BF90D6
:103F1000AF909F908F907F906F905F904F9008959B
:103F2000ED81FE8122A5222361F061507109810992
:103F30009109DF0166837783808791871D921C92A8
:103F4000D8CFED81FE8140A051A062A073A064197A
:103F5000750986099709C08CD18CE28CF38C4601D7
:103F60005701880C991CAA1CBB1C21A5222309F40B
:103F700057C0A50194010E94B85DC501B4010E941B
:103F8000A85D9B01AC01240D351D461D571D2983DD
:103F90003A834B835C83AD81BE8116962D933D930E
:103FA0004D935C931997F8016081718182819381AF
:103FB0006419750986099709A50194010E94B85DE5
:103FC000AD81BE816C157D058E059F0508F4B6CFC9
:103FD00029813A814B815C81C20ED31EE41EF51EFD
:103FE000AD81BE811696CD92DD92ED92FC9219972D
:103FF00081E090E011969C938E939B968C919B9779
:10400000882309F476CFFD0182859385A485B58543
:104010000196A11DB11D82879387A487B58769CFBB
:104020006150710981099109A50194010E94B85D4F
:104030002F5F3F4F4F4F5F4FC501B4010E94A85DF6
:10404000460E571E681E791EAD81BE8116964D9292
:104050005D926D927C92199771CFFB0101900020C7
:10406000E9F73197AF01461B570B0C94861BCF9392
:10407000DF930E94731CEC0164E372E088E898E02F
:104080000E942D208C0F9D1FDF91CF9108958F925C
:104090009F92AF92BF92EF92FF920F931F93CF9395
:1040A000DF93CDB7DEB7A1970FB6F894DEBF0FBE92
:1040B000CDBF7C01FA01CB0119A2223008F42AE01D
:1040C0008E010F5D1F4F822E912CB12CA12CBF01B0
:1040D000A50194010E94B85DF901CA016A300CF58E
:1040E000605DD8016E938D01232B242B252B79F74E
:1040F00090E080E0109721F0BD01C7010E942D20C3
:10410000A1960FB6F894DEBF0FBECDBFDF91CF9161
:104110001F910F91FF90EF90BF90AF909F908F9065
:104120000895695CDECF0F931F93CF93DF93EC016B
:104130000E942D208C0164E372E0CE010E942D20AC
:10414000800F911FDF91CF911F910F9108956115FD
:10415000710511F00C942D2090E080E00895462F19
:1041600050E070E060E02AE00C944720CF93DF93AA
:10417000EC0168A58E850E946B1D198218828E81C4
:104180009F81A885B9854C8D5D8D6E8D7F8D840F47
:10419000951FA61FB71F8E839F83A887B987DF91BE
:1041A000CF910895CF92DF92EF92FF92CF93DF935A
:1041B000C82F0E94441E6B017C0167E372E085E218
:1041C00099E00E94A7206C2F85E299E00E94AF2021
:1041D0006EE372E085E299E00E94A7202AE0B70131
:1041E000A60185E299E00E94472060E472E085E242
:1041F00099E00E94A720C2ECD9E08E819F81A8851A
:10420000B985B701A601481B590B6A0B7B0B2AE045
:1042100085E299E00E94472060E472E085E299E03F
:104220000E94A7204E815F81688579858A859B855C
:10423000AC85BD85481B590B6A0B7B0B2AE085E2D8
:1042400099E0DF91CF91FF90EF90DF90CF900C94A9
:1042500047200F931F93CF93DF9300D000D01F927E
:104260001F92CDB7DEB71F9293E09F931F928F935B
:104270001F9282E08F9382E492E09F938F938E014E
:104280000F5F1F4F1F930F930E943E5FB80188E896
:1042900098E00E94A7200FB6F894DEBF0FBECDBFF6
:1042A00028960FB6F894DEBF0FBECDBFDF91CF9139
:1042B0001F910F910895CF92DF92EF92FF920F938B
:1042C0001F93CF93DF931F921F92CDB7DEB76C0180
:1042D0001F9282E08F9380E5E82E82E0F82EFF9215
:1042E000EF928E010F5F1F4F1F930F930E943E5F4F
:1042F000B80188E898E00E94A720B60188E898E015
:104300000E94A7201F9283E08F93FF92EF921F934A
:104310000F930E943E5FB80188E898E00E94A720B2
:104320000FB6F894DEBF0FBECDBF0F900F90DF9198
:10433000CF911F910F91FF90EF90DF90CF90089554
:104340000F931F93CF93DF9300D000D01F921F9243
:10435000CDB7DEB71F9283E08F931F9282E08F93D9
:104360008CE492E09F938F938E010F5F1F4F1F93FA
:104370000F930E943E5FB80188E898E00E94A72052
:104380000FB6F894DEBF0FBECDBF28960FB6F894D7
:10439000DEBF0FBECDBFDF91CF911F910F9108956A
:1043A0000F931F93CF93DF93CDB7DEB760970FB610
:1043B000F894DEBF0FBECDBF1F9223E02F939F93D3
:1043C0008F937F936F931F9282E08F9383E592E0A8
:1043D0009F938F938E010F5F1F4F1F930F930E9428
:1043E0003E5FB80188E898E00E94A7200FB6F894D5
:1043F000DEBF0FBECDBF60960FB6F894DEBF0FBE16
:10440000CDBFDF91CF911F910F910895CF93C82F0A
:104410008DE395E00E94A85A6830710581059105E9
:10442000D0F4E62FC11102C0E8E0E60F80E7E89F74
:10443000F0011124E85FF54F83A9811103C08DE5D8
:1044400092E002C08BE592E00E945B2160E070E0A8
:10445000CB01CF91089586E00E94292162E070E0AF
:1044600080E090E0F6CFAF92BF92CF92DF92EF92D2
:10447000FF920F931F93CF93DF93CDB7DEB72E97A5
:104480000FB6F894DEBF0FBECDBF182F8DE395E0B9
:104490000E94A85A683071058105910508F073C023
:1044A000E62F111102C0E8E0E60F90E7E99FF00166
:1044B0001124E85FF54F80A191A1A2A1B3A1898346
:1044C0009A83AB83BC8384A195A1A6A1B7A18D8358
:1044D0009E83AF83B88780A591A5A2A5B3A5898740
:1044E0009A87AB87BC871F9282E08F9380E592E02A
:1044F0009F938F938E01035F1F4F1F930F930E9413
:104500003E5FB80188E898E00E94A7200F900F90C6
:104510000F900F900F900F9083E0B82E93E0C92E6C
:10452000D12C20E2A22E30E5E32E32E0F32EF6016C
:10453000EB19F109EE0FFF1FEE0FFF1F81E090E076
:104540008C0F9D1FE80FF91F40815181628173819B
:104550002AE088E898E00E944720BA94BA941F9213
:10456000AF92FF92EF921F930F930E943E5FB801AC
:1045700088E898E00E94A7200F900F900F900F906E
:104580000F900F90D4CF86E00E94292162E070E066
:1045900080E090E02E960FB6F894DEBF0FBECDBF40
:1045A000DF91CF911F910F91FF90EF90DF90CF900F
:1045B000BF90AF900895CF93C82F8DE395E00E94F0
:1045C000A85A6830710581059105D0F4E62FC11114
:1045D00002C0E8E0E60F80E7E89FF0011124E85F01
:1045E000F54F80A9811103C08DE592E002C08BE5F3
:1045F00092E00E945B2160E070E0CB01CF910895D2
:1046000086E00E94292162E070E080E090E0F6CF31
:10461000CF93C82F8DE395E00E94A85A68307105AA
:1046200081059105D0F4E62FC11102C0E8E0E60F44
:1046300080E7E89FF0011124E85FF54F81A981111F
:1046400003C08DE592E002C08BE592E00E945B2101
:1046500060E070E0CB01CF91089586E00E942921AF
:1046600062E070E080E090E0F6CFCF93C82F8DE35A
:1046700095E00E94A85A6830710581059105D0F433
:10468000E62FC11102C0E8E0E60F80E7E89FF001E5
:104690001124E85FF54F8285811103C08DE592E01A
:1046A00002C08BE592E00E945B2160E070E0CB01EC
:1046B000CF91089586E00E94292162E070E080E0B9
:1046C00090E0F6CF0F931F93CF93DF93CDB7DEB774
:1046D000C058D1090FB6F894DEBF0FBECDBF182F5A
:1046E0008DE395E00E94A85A683071058105910517
:1046F00008F080C0E62F111102C0E8E0E60F80E765
:10470000E89FF0011124E85FF54F83A91F928F9372
:1047100080A91F928F9381A91F928F9382A91F92C4
:104720008F93DF01529613968C9113978F93129665
:104730008C9112978F9311968C9111978F938289F8
:104740008F935A9613968C9113978F9312968C9100
:1047500012978F9311968C9111978F9384A58F93B5
:10476000149713968C9113978F9312968C9112979E
:104770008F9311968C9111978F9380A58F93149797
:1047800013968C9113978F9312968C9112978F9307
:1047900011968C9111978F9384A18F9314971396F0
:1047A0008C9113978F9312968C9112978F931196E9
:1047B0008C918F9380A18F93878D8F93868D8F930C
:1047C00082851F928F938FE592E09F938F938E0146
:1047D0000F5F1F4F1F930F930E943E5F0FB6F89419
:1047E000DEBF0FBECDBFC8010E945B2160E070E05C
:1047F000CB0107C086E00E94292162E070E080E0E2
:1048000090E0C058DF4F0FB6F894DEBF0FBECDBFAB
:10481000DF91CF911F910F910895CF93C82F8DE312
:1048200095E00E94A85A6830710581059105A8F4A9
:10483000E62FC11102C0E8E0E60F80E7E89FF00133
:104840001124E85FF54F62897389848995890E94F4
:10485000D02160E070E0CB0107C086E00E942921F2
:1048600062E070E080E090E0CF910895CF93C82F90
:104870008DE395E00E94A85A683071058105910585
:10488000A8F4E62FC11102C0E8E0E60F80E7E89F38
:10489000F0011124E85FF54F64A575A586A597A5DD
:1048A0000E94D02160E070E0CB0107C086E00E944A
:1048B000292162E070E080E090E0CF910895CF93ED
:1048C000C82F8DE395E00E94A85A683071058105D4
:1048D0009105D0F4E62FC11102C0E8E0E60F80E7B1
:1048E000E89FF0011124E85FF54F82A9811103C010
:1048F0008DE592E002C08BE592E00E945B2160E0D2
:1049000070E0CB01CF91089586E00E94292162E0FA
:1049100070E080E090E0F6CFEF92FF920F931F934C
:10492000CF93DF9300D01F92CDB7DEB785E299E039
:104930000E94C21B85E299E00E94C21B8E010F5F9C
:104940001F4F78018A3341F0F80181938F0185E28E
:1049500099E00E94C21BF6CFC7010E948A5A182F05
:1049600085E299E00E94C21B8053990B8230910529
:1049700020F4682F812F0E946B1D85E299E00E9430
:10498000C21B8A3011F08D30C1F785E299E00E9498
:10499000D61B8A3021F485E299E00E94C21B0F9059
:1049A0000F900F900F90DF91CF911F910F91FF907B
:1049B000EF90089585E299E00E94D61B843611F4A9
:1049C0000E948C240E94441E6093C8097093C909F8
:1049D0008093CA099093CB090895CF92DF92EF920A
:1049E000FF921F93CF93DF93C82F8DE395E00E9432
:1049F000A85A683071058105910508F095C0162FF9
:104A0000C11102C018E0160F80E7189FF0011124B1
:104A1000E85FF54FC68DD78D84EF91E0A0E0B0E060
:104A20008093D0099093D109A093D209B093D30970
:104A30001092D4091092D5091092D6091092D70974
:104A40008091C8099091C909A091CA09B091CB0978
:104A50008093CC099093CD09A093CE09B093CF0950
:104A60000E94441E6093C8097093C9098093CA09C3
:104A70009093CB0985E299E00E94D61B843611F40D
:104A80000E948C2480E00E94791E8823A9F182E094
:104A90000E94D22065E872E085E299E00E94A7209A
:104AA0006E010D2E000CEE08FF082AE0B701A601EA
:104AB000F7FE0DC06DE285E299E00E94261C4427B6
:104AC0005527BA014C195D096E097F092AE085E274
:104AD00099E00E94472065E872E085E299E00E9433
:104AE000A720612F85E299E00E94AF2067E872E07D
:104AF00085E299E00E94932062E070E080E090E01F
:104B00000E94771E0E94DA24BE0190E080E00E949D
:104B1000D02160E070E0CB01DF91CF911F91FF9039
:104B2000EF90DF90CF90089586E00E94292162E007
:104B300070E080E090E0F0CFFF920F931F93CF934F
:104B4000DF93EC01F62E08811981C8010E94925D65
:104B5000F81621F06F2DC8010E949A5DCE01DF91F9
:104B6000CF911F910F91FF900895EF92FF920F93B5
:104B70001F93CF93DF931F921F92CDB7DEB784E6CA
:104B8000E82E88E0F82E00E014E01A830983F7018C
:104B900061917F01CE0101960E949C250F5F1F4FFE
:104BA0000432F4E01F0789F784E698E00F900F9035
:104BB000DF91CF911F910F91FF90EF900895EF92A9
:104BC000FF920F931F93CF93DF931F921F92CDB746
:104BD000DEB705E418E0855498407C01C701800FDA
:104BE000911F9A838983F8016281CE0101960E9408
:104BF0009C250F5F1F4FF8E00A341F0779F787E401
:104C000098E00F900F90DF91CF911F910F91FF903F
:104C1000EF900895AF92BF92CF92DF92EF92FF9202
:104C20000F931F93CF93DF931F921F92CDB7DEB7E1
:104C30008B016B012CE5C20ED11C7B015C01A61A15
:104C4000B70AC5018E0D9F1D9A838983F701619173
:104C50007F01CE0101960E949C25EC14FD0489F78A
:104C6000C8010F900F90DF91CF911F910F91FF908E
:104C7000EF90DF90CF90BF90AF9008954F925F92EA
:104C80006F927F928F929F92AF92BF92CF92DF925C
:104C9000EF92FF92CF93C82F8DE395E00E94A85A20
:104CA0002B013C018DE795E00E94A85A4B015C0165
:104CB0008DEB95E00E94A85A6B017C018DEF95E089
:104CC0000E94A85A28E0421651046104710428F594
:104CD000242DC11102C028E0240D40E7249F90013B
:104CE0001124F901E85FF54F80A291A2A2A2B3A21C
:104CF000C4A2D5A2E6A2F7A260A771A782A793A734
:104D0000B9016E5D754F8789908D0E940A260E94B9
:104D1000A02160E070E0CB0107C086E00E9429215D
:104D200062E070E080E090E0CF91FF90EF90DF9044
:104D3000CF90BF90AF909F908F907F906F905F903B
:104D40004F900895CF92DF92EF92FF92CF93C82FAA
:104D50008DE395E00E94A85A6B017C018DE795E0F8
:104D60000E94A85A28E0C216D104E104F104F8F424
:104D700021E0672B682B692B09F420E06C2DC11111
:104D800002C068E06C0D80E7689FB0011124FB0150
:104D9000E85FF54F20AB6E5D754F8789908D0E945F
:104DA0000A260E94A02160E070E0CB0107C086E0E7
:104DB0000E94292162E070E080E090E0CF91FF90B6
:104DC000EF90DF90CF900895CF92DF92EF92FF9215
:104DD000CF93C82F8DE395E00E94A85A6B017C0108
:104DE0008DE795E00E94A85A28E0C216D104E1049C
:104DF000F104F8F421E0672B682B692B09F420E01B
:104E00006C2DC11102C068E06C0D80E7689FB00195
:104E10001124FB01E85FF54F21AB6E5D754F87896B
:104E2000908D0E940A260E94A02160E070E0CB01D4
:104E300007C086E00E94292162E070E080E090E0F7
:104E4000CF91FF90EF90DF90CF900895CF92DF92B7
:104E5000EF92FF92CF93C82F8DE395E00E94A85A5E
:104E60006B017C018DE795E00E94A85A28E0C216EC
:104E7000D104E104F10408F52C2DC11102C028E091
:104E80002C0D40E7249F90011124F901E85FF54FB4
:104E900064A775A786A797A7628B738B848B958B66
:104EA000B9016E5D754F8789908D0E940A260E9418
:104EB000A02160E070E0CB0107C086E00E942921BC
:104EC00062E070E080E090E0CF91FF90EF90DF90A3
:104ED000CF900895CF92DF92EF92FF92CF93C82F99
:104EE0008DE395E00E94A85A6B017C018DE795E067
:104EF0000E94A85A28E0C216D104E104F104F8F493
:104F000021E0672B682B692B09F420E06C2DC1117F
:104F100002C068E06C0D80E7689FB0011124FB01BE
:104F2000E85FF54F22AB6E5D754F8789908D0E94CB
:104F30000A260E94A02160E070E0CB0107C086E055
:104F40000E94292162E070E080E090E0CF91FF9024
:104F5000EF90DF90CF900895FC0180E06F3F7105E6
:104F600031F081E0411103C080E06FEF70E083A772
:104F700075A764A71382BF016E5E7F4F87859089F6
:104F80000E940A2660E070E0CB0108958F929F9204
:104F9000AF92BF92CF92DF92EF92FF920F931F9347
:104FA000CF93DF93082F8DE395E00E94A85A4B0121
:104FB0005C018DE795E00E94A85A162FD72FC62EC8
:104FC000D72E7C018DEB95E00E94A85A28E082162E
:104FD0009104A104B10430F524E0C216D104E10427
:104FE000F10400F541E0672B682B692B09F440E0E0
:104FF000C82D011102C0C8E0C80D20E7C29FC00142
:1050000011247D2F612F805F954F0E94AC27EC2FDC
:10501000F0E0E05FFE4E10830E94A02160E070E0AF
:10502000CB0107C086E00E94292162E070E080E0A9
:1050300090E0DF91CF911F910F91FF90EF90DF9063
:10504000CF90BF90AF909F908F900895EF92FF9276
:105050000F931F93CF93DF93EC018B010E94B62037
:105060007E0182E1E80EF11C0230110521F10330CE
:10507000110561F101301105B9F01F8A1E8A1D82E8
:105080001C8281E090E099838883B7018F8598899D
:105090000E940A2660E070E0CB01DF91CF911F9162
:1050A0000F91FF90EF9008951F8B0E8B1D830C8343
:1050B00019821882EACF1F8B0E8B1D830C838A8185
:1050C000882319F3CE010E944E1FDFCF1F8B0E8B5A
:1050D0001D830C838CA19DA1AEA1BFA18A879B8754
:1050E000AC87BD87B7018F8598890E940A2681E029
:1050F0008AA7B7018F8598890E940A26E0CFCF92B0
:10510000DF92EF92FF921F93CF93DF93C82F8DE32F
:1051100095E00E94A85A6B017C0128E0C216D104D8
:10512000E104F10430F56EE872E08DE795E00E944D
:105130001B5F892B81F58C2DC11102C088E08C0D7D
:1051400020E7829FC001112470E060E0805F954FEE
:105150000E9426286B017C01C114D104E104F104F2
:1051600009F440C186E0C816D104E104F10409F055
:1051700035C186E00E94292186E0C82ED12CE12C81
:10518000F12CC701B601DF91CF911F91FF90EF90F5
:10519000DF90CF90089561E874E08DE795E00E947C
:1051A0001B5F892B61F48C2DC11102C088E08C0D2E
:1051B00020E7829FC001112461E070E0C7CF62E95F
:1051C00072E08DE795E00E941B5F892B09F0F1C02A
:1051D00084EF91E0A0E0B0E08093D0099093D109F2
:1051E000A093D209B093D3091092D4091092D50993
:1051F0001092D6091092D7098091C8099091C909D7
:10520000A091CA09B091CB098093CC099093CD09A4
:10521000A093CE09B093CF090E94441E6093C809A1
:105220007093C9098093CA099093CB0985E299E0EC
:105230000E94D61B843611F40E948C2462E070E038
:1052400080E090E00E94771E6AE070E080E090E0ED
:105250000E94771E85E68093D909DC2D18E01C0D8D
:10526000C11101C0C12E8091D909833609F495C0BE
:10527000853609F042C08091D4099091D509A0915A
:10528000D609B091D7090196A11DB11D8093D4090B
:105290009093D509A093D609B093D7094091D0092E
:1052A0005091D1096091D2097091D309452B462BB9
:1052B000472B21F4892B8A2B8B2BF9F480E00E9459
:1052C000791E8823A1F087E00E94D22065E872E071
:1052D00085E299E00E94A7206C2D85E299E00E946A
:1052E000AF2067E872E085E299E00E94932064EFC6
:1052F00071E080E090E00E94501E6AE070E080E083
:1053000090E00E94771E8091D809882309F440C05C
:1053100085E299E00E94E41B81110AC085E6809332
:10532000D909A1CF2137310599F126373105B9F3D4
:1053300085E299E00E94E41B882381F385E299E0ED
:105340000E94C21B9C0133272836310509F154F70E
:1053500028353105F9F02336310551F781E00E94F7
:10536000791E69E972E085E299E00E94A72067E072
:1053700085E299E00E94AF2060EA72E085E299E060
:105380000E94932062E370E080E090E00E94771E2C
:1053900083E6C5CF1092D809FBCF0E94DA24C11151
:1053A00001C0D12F20E7D29FC001112462E070E03C
:1053B000CDCE67EA72E08DE795E00E941B5F892BF6
:1053C00009F0D7CE8C2DC11102C088E08C0D20E7EA
:1053D000829FC001112463E070E0B8CE85E00E9496
:1053E0002921CFCE0E94A021CCCE1F93CF93DF9353
:1053F000EC01162F6A8380914B08882359F08BA506
:10540000811108C06EA7BE016E5E7F4F8F8598899F
:105410000E940A268E899F89039761F48CA19DA121
:10542000AEA1BFA10097A105B10581F08A879B8736
:10543000AC87BD87CE01112371F00E944E1F60E042
:1054400070E0CB01DF91CF911F91089582E090E051
:105450009D838C83EFCF0E94B620F1CFFF920F93F4
:105460001F93CF93DF93F82E00E111E1D0E0C0E06D
:10547000F80181918F018F1106C061E0CE01805F3C
:10548000954F0E94F529C059DF4FC115F7E0DF079E
:1054900079F7DF91CF911F910F91FF90089580913F
:1054A0006B08882361F080914008811108C083E077
:1054B0000E942E2A81E0809340088093440808953A
:1054C00080916A08882361F080913F08811108C0AB
:1054D00082E00E942E2A81E080933F088093430857
:1054E000089580916908882361F080913E088111B8
:1054F00008C081E00E942E2A81E080933E088093BC
:105500004208089585E30E94421D61E0892B09F05D
:1055100060E085E30E946B1D80916808882359F044
:1055200080913D08811107C00E942E2A81E080935E
:105530003D088093410808952F923F924F925F92C9
:105540006F927F928F929F92AF92BF92CF92DF9293
:10555000EF92FF920F931F93CF93DF93CDB7DEB7F8
:10556000A1970FB6F894DEBF0FBECDBF89838DE340
:1055700095E00E94A85A2B013C018DE795E00E941E
:10558000A85A6B017C018DEF95E00E94A85A6B83AD
:105590007C838D839E838DE396E00E94A85A6F835F
:1055A000788789879A878DE796E00E94A85A6B874B
:1055B0007C878D879E878DEB96E00E94A85A4B01D1
:1055C0005C018DEF96E00E94A85A6F87788B898BDB
:1055D0009A8B8DE397E00E94A85A6B8B7C8B8D8B06
:1055E0009E8B8DE797E00E94A85A6F8B788F898FEA
:1055F0009A8F8DEB97E00E94A85A6F8F8DEF97E0FE
:105600000E94A85A6B8F7C8F8D8F9E8F28E0421648
:1056100051046104710408F03DC161E0CD28CE2839
:10562000CF2809F460E0042D3981311102C008E06F
:10563000040D202E312CE0E70E9F800111249801EB
:10564000205F354F3A832983C9010E94F5296B01F8
:105650007C016EE872E08DEB95E00E941B5F892B68
:1056600009F0D5C070E060E089819A810E94262807
:10567000C60ED71EE81EF91E80E7829DA001839DFD
:10568000500D1124485F554F59A348A38B819C812D
:10569000AD81BE81FA0180A391A3A2A3B3A32F8100
:1056A000388549855A8524A335A346A357A32B855E
:1056B0003C854D855E8520A731A742A753A70E5D87
:1056C000154FB8018789908D0E940A26E8A1F9A19B
:1056D00084A695A6A6A6B7A6828A938AA48AB58A26
:1056E000B8018789908D0E940A2681E02F8538892C
:1056F00049895A89232B242B252B09F480E0A8A162
:10570000B9A1D2968C9380E7829DF001839DF00D24
:105710001124E85FF54FFC83EB83B8018789908DF6
:105720000E940A2681E02B893C894D895E89232BC2
:10573000242B252B09F480E0AB81BC81D1968C937E
:1057400080E7829DF001839DF00D1124E85FF54F05
:10575000FC83EB83B8018789908D0E940A2681E043
:105760002F89388D498D5A8D232B242B252B09F415
:1057700080E0AB81BC81D0968C9380E7829DF00164
:10578000839DF00D1124E85FF54FB8018789908D56
:105790000E940A26BF8DB43008F074C041E08B8DA2
:1057A0009C8DAD8DBE8D892B8A2B8B2B09F440E00F
:1057B000AF8D6A2F70E089819A810E94AC27F10138
:1057C000E05FFE4EBF8DB083C114D104E104F1044B
:1057D00009F05CC00E94A021C701B601A1960FB6D6
:1057E000F894DEBF0FBECDBFDF91CF911F910F9117
:1057F000FF90EF90DF90CF90BF90AF909F908F90F1
:105800007F906F905F904F903F902F90089561E848
:1058100074E08DEB95E00E941B5F892B59F440E703
:10582000449DC001459D900D112461E070E0805FB2
:10583000954F1CCF62E972E08DEB95E00E941B5FF3
:10584000892B49F450E7549DC001559D900D1124BA
:1058500062E070E0ECCF67EA72E08DEB95E00E94C9
:105860001B5F892B49F4A0E7A49DC001A59D900D65
:10587000112463E070E0DBCFBFEFCB1ADB0AEB0A49
:10588000FB0AFACE40E09FEF9F8F92CF85E00E9407
:105890002921A2CF86E00E94292182E0C82ED12CA6
:1058A000E12CF12C99CFCF92DF92EF92FF92CF9320
:1058B000C82F8DE395E00E94A85A6B017C018DE70B
:1058C00095E00E94A85A28E0C216D104E104F10430
:1058D00068F521E0672B682B692B09F420E08C2DFB
:1058E000C11102C088E08C0D30E7839FC0011124F4
:1058F000622F805F954F0E94F5296B017C01C114D6
:10590000D104E104F10451F40E94A021C701B601C1
:10591000CF91FF90EF90DF90CF90089585E00E94A7
:105920002921C12CD12C7601C394F0CF86E00E94AE
:10593000292182E0C82ED12CE12CF12CE7CF1F9237
:105940000F920FB60F9211240BB60F922F933F9325
:105950004F935F936F937F938F939F93AF93BF9377
:10596000EF93FF9388E898E00E94041CFF91EF9169
:10597000BF91AF919F918F917F916F915F914F9167
:105980003F912F910F900BBE0F900FBE0F901F9065
:1059900018951F920F920FB60F9211240BB60F920B
:1059A0002F938F939F93EF93FF93E0919808F0913B
:1059B00099088081E0919E08F0919F0882FD1DC0AA
:1059C00090818091A1088F5F8F732091A208821728
:1059D00041F0E091A108F0E0E857F74F958F8093F0
:1059E000A108FF91EF919F918F912F910F900BBE86
:1059F0000F900FBE0F901F9018958081F2CF1F92CD
:105A00000F920FB60F9211240BB60F922F933F9364
:105A10004F935F936F937F938F939F93AF93BF93B6
:105A2000EF93FF9385E299E00E94041CFF91EF91B0
:105A3000BF91AF919F918F917F916F915F914F91A6
:105A40003F912F910F900BBE0F900FBE0F901F90A4
:105A500018951F920F920FB60F9211240BB60F924A
:105A60002F938F939F93EF93FF93E0913509F091DC
:105A700036098081E0913B09F0913C0982FD1DC00F
:105A8000908180913E098F5F8F7320913F0982172B
:105A900041F0E0913E09F0E0EB5DF64F958F809389
:105AA0003E09FF91EF919F918F912F910F900BBE27
:105AB0000F900FBE0F901F9018958081F2CF1F920C
:105AC0000F920FB60F9211242F933F938F939F93B2
:105AD000AF93BF938091990490919A04A0919B04F5
